{
  "contractName": "piMarket",
  "abi": [
    {
      "inputs": [
        {
          "internalType": "address",
          "name": "_feeAddress",
          "type": "address"
        }
      ],
      "stateMutability": "nonpayable",
      "type": "constructor"
    },
    {
      "anonymous": false,
      "inputs": [
        {
          "indexed": false,
          "internalType": "uint256",
          "name": "price",
          "type": "uint256"
        }
      ],
      "name": "BidExecuted",
      "type": "event"
    },
    {
      "anonymous": false,
      "inputs": [
        {
          "components": [
            {
              "internalType": "uint256",
              "name": "bidId",
              "type": "uint256"
            },
            {
              "internalType": "uint256",
              "name": "saleId",
              "type": "uint256"
            },
            {
              "internalType": "address",
              "name": "sellerAddress",
              "type": "address"
            },
            {
              "internalType": "address",
              "name": "buyerAddress",
              "type": "address"
            },
            {
              "internalType": "uint256",
              "name": "price",
              "type": "uint256"
            },
            {
              "internalType": "bool",
              "name": "withdrawn",
              "type": "bool"
            }
          ],
          "indexed": false,
          "internalType": "struct piMarket.BidOrder",
          "name": "bid",
          "type": "tuple"
        }
      ],
      "name": "BidOrderReturn",
      "type": "event"
    },
    {
      "anonymous": false,
      "inputs": [
        {
          "indexed": true,
          "internalType": "address",
          "name": "from",
          "type": "address"
        },
        {
          "indexed": true,
          "internalType": "address",
          "name": "to",
          "type": "address"
        },
        {
          "indexed": true,
          "internalType": "uint256",
          "name": "swapId",
          "type": "uint256"
        }
      ],
      "name": "SwapProposed",
      "type": "event"
    },
    {
      "anonymous": false,
      "inputs": [
        {
          "components": [
            {
              "internalType": "uint256",
              "name": "saleId",
              "type": "uint256"
            },
            {
              "internalType": "address",
              "name": "tokenContractAddress",
              "type": "address"
            },
            {
              "internalType": "uint256",
              "name": "tokenId",
              "type": "uint256"
            },
            {
              "internalType": "uint256",
              "name": "price",
              "type": "uint256"
            },
            {
              "internalType": "bool",
              "name": "directSale",
              "type": "bool"
            },
            {
              "internalType": "bool",
              "name": "bidSale",
              "type": "bool"
            },
            {
              "internalType": "bool",
              "name": "status",
              "type": "bool"
            },
            {
              "internalType": "uint256",
              "name": "bidStartTime",
              "type": "uint256"
            },
            {
              "internalType": "uint256",
              "name": "bidEndTime",
              "type": "uint256"
            },
            {
              "internalType": "address",
              "name": "currentOwner",
              "type": "address"
            }
          ],
          "indexed": false,
          "internalType": "struct piMarket.TokenMeta",
          "name": "data",
          "type": "tuple"
        },
        {
          "indexed": false,
          "internalType": "uint256",
          "name": "id",
          "type": "uint256"
        }
      ],
      "name": "TokenMetaReturn",
      "type": "event"
    },
    {
      "inputs": [
        {
          "internalType": "uint256",
          "name": "",
          "type": "uint256"
        },
        {
          "internalType": "uint256",
          "name": "",
          "type": "uint256"
        }
      ],
      "name": "Bids",
      "outputs": [
        {
          "internalType": "uint256",
          "name": "bidId",
          "type": "uint256"
        },
        {
          "internalType": "uint256",
          "name": "saleId",
          "type": "uint256"
        },
        {
          "internalType": "address",
          "name": "sellerAddress",
          "type": "address"
        },
        {
          "internalType": "address",
          "name": "buyerAddress",
          "type": "address"
        },
        {
          "internalType": "uint256",
          "name": "price",
          "type": "uint256"
        },
        {
          "internalType": "bool",
          "name": "withdrawn",
          "type": "bool"
        }
      ],
      "stateMutability": "view",
      "type": "function",
      "constant": true
    },
    {
      "inputs": [
        {
          "internalType": "uint256",
          "name": "",
          "type": "uint256"
        }
      ],
      "name": "_swaps",
      "outputs": [
        {
          "internalType": "address",
          "name": "NFTContractAddress",
          "type": "address"
        },
        {
          "internalType": "address",
          "name": "initiator",
          "type": "address"
        },
        {
          "internalType": "uint256",
          "name": "initiatorNftId",
          "type": "uint256"
        },
        {
          "internalType": "address",
          "name": "secondUser",
          "type": "address"
        },
        {
          "internalType": "uint256",
          "name": "secondUserNftId",
          "type": "uint256"
        },
        {
          "internalType": "bool",
          "name": "status",
          "type": "bool"
        }
      ],
      "stateMutability": "view",
      "type": "function",
      "constant": true
    },
    {
      "inputs": [
        {
          "internalType": "uint256",
          "name": "",
          "type": "uint256"
        }
      ],
      "name": "_tokenMeta",
      "outputs": [
        {
          "internalType": "uint256",
          "name": "saleId",
          "type": "uint256"
        },
        {
          "internalType": "address",
          "name": "tokenContractAddress",
          "type": "address"
        },
        {
          "internalType": "uint256",
          "name": "tokenId",
          "type": "uint256"
        },
        {
          "internalType": "uint256",
          "name": "price",
          "type": "uint256"
        },
        {
          "internalType": "bool",
          "name": "directSale",
          "type": "bool"
        },
        {
          "internalType": "bool",
          "name": "bidSale",
          "type": "bool"
        },
        {
          "internalType": "bool",
          "name": "status",
          "type": "bool"
        },
        {
          "internalType": "uint256",
          "name": "bidStartTime",
          "type": "uint256"
        },
        {
          "internalType": "uint256",
          "name": "bidEndTime",
          "type": "uint256"
        },
        {
          "internalType": "address",
          "name": "currentOwner",
          "type": "address"
        }
      ],
      "stateMutability": "view",
      "type": "function",
      "constant": true
    },
    {
      "inputs": [
        {
          "internalType": "address",
          "name": "",
          "type": "address"
        },
        {
          "internalType": "address",
          "name": "",
          "type": "address"
        },
        {
          "internalType": "uint256",
          "name": "",
          "type": "uint256"
        },
        {
          "internalType": "bytes",
          "name": "",
          "type": "bytes"
        }
      ],
      "name": "onERC721Received",
      "outputs": [
        {
          "internalType": "bytes4",
          "name": "",
          "type": "bytes4"
        }
      ],
      "stateMutability": "nonpayable",
      "type": "function"
    },
    {
      "inputs": [
        {
          "internalType": "address",
          "name": "_piNFTAddress",
          "type": "address"
        },
        {
          "internalType": "uint256",
          "name": "_tokenId",
          "type": "uint256"
        },
        {
          "internalType": "uint256",
          "name": "_price",
          "type": "uint256"
        }
      ],
      "name": "sellNFT",
      "outputs": [],
      "stateMutability": "nonpayable",
      "type": "function"
    },
    {
      "inputs": [
        {
          "internalType": "address",
          "name": "_contractAddress",
          "type": "address"
        },
        {
          "internalType": "uint256",
          "name": "_tokenId",
          "type": "uint256"
        }
      ],
      "name": "retrieveRoyalty",
      "outputs": [
        {
          "components": [
            {
              "internalType": "address payable",
              "name": "account",
              "type": "address"
            },
            {
              "internalType": "uint96",
              "name": "value",
              "type": "uint96"
            }
          ],
          "internalType": "struct LibShare.Share[]",
          "name": "",
          "type": "tuple[]"
        }
      ],
      "stateMutability": "view",
      "type": "function",
      "constant": true
    },
    {
      "inputs": [
        {
          "internalType": "uint256",
          "name": "_saleId",
          "type": "uint256"
        }
      ],
      "name": "BuyNFT",
      "outputs": [],
      "stateMutability": "payable",
      "type": "function",
      "payable": true
    },
    {
      "inputs": [
        {
          "internalType": "uint256",
          "name": "_saleId",
          "type": "uint256"
        }
      ],
      "name": "cancelSale",
      "outputs": [],
      "stateMutability": "nonpayable",
      "type": "function"
    },
    {
      "inputs": [
        {
          "internalType": "address",
          "name": "_piNFTAddress",
          "type": "address"
        },
        {
          "internalType": "uint256",
          "name": "_tokenId",
          "type": "uint256"
        },
        {
          "internalType": "uint256",
          "name": "_price",
          "type": "uint256"
        },
        {
          "internalType": "uint256",
          "name": "_bidTime",
          "type": "uint256"
        }
      ],
      "name": "SellNFT_byBid",
      "outputs": [],
      "stateMutability": "nonpayable",
      "type": "function"
    },
    {
      "inputs": [
        {
          "internalType": "uint256",
          "name": "_saleId",
          "type": "uint256"
        }
      ],
      "name": "Bid",
      "outputs": [],
      "stateMutability": "payable",
      "type": "function",
      "payable": true
    },
    {
      "inputs": [
        {
          "internalType": "uint256",
          "name": "_saleId",
          "type": "uint256"
        },
        {
          "internalType": "uint256",
          "name": "_bidOrderID",
          "type": "uint256"
        }
      ],
      "name": "executeBidOrder",
      "outputs": [],
      "stateMutability": "nonpayable",
      "type": "function"
    },
    {
      "inputs": [
        {
          "internalType": "uint256",
          "name": "_saleId",
          "type": "uint256"
        },
        {
          "internalType": "uint256",
          "name": "_bidId",
          "type": "uint256"
        }
      ],
      "name": "withdrawBidMoney",
      "outputs": [],
      "stateMutability": "nonpayable",
      "type": "function"
    },
    {
      "inputs": [
        {
          "internalType": "address",
          "name": "piNFTAddress",
          "type": "address"
        },
        {
          "internalType": "uint256",
          "name": "token1",
          "type": "uint256"
        },
        {
          "internalType": "uint256",
          "name": "token2",
          "type": "uint256"
        }
      ],
      "name": "swapTokens",
      "outputs": [
        {
          "internalType": "uint256",
          "name": "",
          "type": "uint256"
        }
      ],
      "stateMutability": "nonpayable",
      "type": "function"
    },
    {
      "inputs": [
        {
          "internalType": "uint256",
          "name": "_swapId",
          "type": "uint256"
        }
      ],
      "name": "cancelSwap",
      "outputs": [],
      "stateMutability": "nonpayable",
      "type": "function"
    },
    {
      "inputs": [
        {
          "internalType": "uint256",
          "name": "swapId",
          "type": "uint256"
        }
      ],
      "name": "acceptSwap",
      "outputs": [],
      "stateMutability": "nonpayable",
      "type": "function"
    },
    {
      "inputs": [
        {
          "internalType": "uint256",
          "name": "swapId",
          "type": "uint256"
        }
      ],
      "name": "rejectSwap",
      "outputs": [],
      "stateMutability": "nonpayable",
      "type": "function"
    }
  ],
  "bytecode": "0x60806040523480156200001157600080fd5b50604051620049e2380380620049e2833981810160405281019062000037919062000164565b6001600081905550600073ffffffffffffffffffffffffffffffffffffffff168173ffffffffffffffffffffffffffffffffffffffff161415620000b2576040517f08c379a0000000000000000000000000000000000000000000000000000000008152600401620000a990620001f7565b60405180910390fd5b80600360006101000a81548173ffffffffffffffffffffffffffffffffffffffff021916908373ffffffffffffffffffffffffffffffffffffffff1602179055505062000219565b600080fd5b600073ffffffffffffffffffffffffffffffffffffffff82169050919050565b60006200012c82620000ff565b9050919050565b6200013e816200011f565b81146200014a57600080fd5b50565b6000815190506200015e8162000133565b92915050565b6000602082840312156200017d576200017c620000fa565b5b60006200018d848285016200014d565b91505092915050565b600082825260208201905092915050565b7f46656520616464726573732063616e6e6f74206265207a65726f000000000000600082015250565b6000620001df601a8362000196565b9150620001ec82620001a7565b602082019050919050565b600060208201905081810360008301526200021281620001d0565b9050919050565b6147b980620002296000396000f3fe6080604052600436106100f35760003560e01c806396faba9d1161008a578063c073b47211610059578063c073b4721461033c578063d04bc3f21461037e578063f436682a146103a7578063f779a193146103d0576100f3565b806396faba9d14610278578063a37365e0146102b5578063a7f323da146102d1578063bd94b00514610313576100f3565b806376cb6647116100c657806376cb6647146101b05780637a183e84146101d95780638e57ff16146101f557806396b195b61461023b576100f3565b8063150b7a02146100f85780631bf33004146101355780632bd87c4f1461015e57806354d6a2b714610187575b600080fd5b34801561010457600080fd5b5061011f600480360381019061011a91906134c4565b6103f9565b60405161012c9190613582565b60405180910390f35b34801561014157600080fd5b5061015c6004803603810190610157919061359d565b61040d565b005b34801561016a57600080fd5b50610185600480360381019061018091906135ca565b61073b565b005b34801561019357600080fd5b506101ae60048036038101906101a9919061359d565b610aa4565b005b3480156101bc57600080fd5b506101d760048036038101906101d291906135ca565b610cce565b005b6101f360048036038101906101ee919061359d565b6113da565b005b34801561020157600080fd5b5061021c6004803603810190610217919061359d565b611765565b6040516102329a99989796959493929190613643565b60405180910390f35b34801561024757600080fd5b50610262600480360381019061025d91906136df565b611820565b60405161026f9190613732565b60405180910390f35b34801561028457600080fd5b5061029f600480360381019061029a919061374d565b611c7f565b6040516102ac91906138b3565b60405180910390f35b6102cf60048036038101906102ca919061359d565b611d08565b005b3480156102dd57600080fd5b506102f860048036038101906102f391906135ca565b612392565b60405161030a969594939291906138d5565b60405180910390f35b34801561031f57600080fd5b5061033a6004803603810190610335919061359d565b612438565b005b34801561034857600080fd5b50610363600480360381019061035e919061359d565b6126d4565b60405161037596959493929190613936565b60405180910390f35b34801561038a57600080fd5b506103a560048036038101906103a0919061359d565b61277d565b005b3480156103b357600080fd5b506103ce60048036038101906103c99190613997565b612a34565b005b3480156103dc57600080fd5b506103f760048036038101906103f291906136df565b612e46565b005b600063150b7a0260e01b9050949350505050565b6000600660008381526020019081526020016000206040518060c00160405290816000820160009054906101000a900473ffffffffffffffffffffffffffffffffffffffff1673ffffffffffffffffffffffffffffffffffffffff1673ffffffffffffffffffffffffffffffffffffffff1681526020016001820160009054906101000a900473ffffffffffffffffffffffffffffffffffffffff1673ffffffffffffffffffffffffffffffffffffffff1673ffffffffffffffffffffffffffffffffffffffff168152602001600282015481526020016003820160009054906101000a900473ffffffffffffffffffffffffffffffffffffffff1673ffffffffffffffffffffffffffffffffffffffff1673ffffffffffffffffffffffffffffffffffffffff168152602001600482015481526020016005820160009054906101000a900460ff16151515158152505090508060a001516105a4576040517f08c379a000000000000000000000000000000000000000000000000000000000815260040161059b90613a5b565b60405180910390fd5b3373ffffffffffffffffffffffffffffffffffffffff16816060015173ffffffffffffffffffffffffffffffffffffffff1614610616576040517f08c379a000000000000000000000000000000000000000000000000000000000815260040161060d90613ac7565b60405180910390fd5b60006006600084815260200190815260200160002060050160006101000a81548160ff021916908315150217905550806000015173ffffffffffffffffffffffffffffffffffffffff166342842e0e303384604001516040518463ffffffff1660e01b815260040161068a93929190613ae7565b600060405180830381600087803b1580156106a457600080fd5b505af11580156106b8573d6000803e3d6000fd5b50505050806000015173ffffffffffffffffffffffffffffffffffffffff166342842e0e33836020015184608001516040518463ffffffff1660e01b815260040161070593929190613ae7565b600060405180830381600087803b15801561071f57600080fd5b505af1158015610733573d6000803e3d6000fd5b505050505050565b60026000541415610781576040517f08c379a000000000000000000000000000000000000000000000000000000000815260040161077890613b6a565b60405180910390fd5b60026000819055506004600083815260200190815260200160002060070160009054906101000a900473ffffffffffffffffffffffffffffffffffffffff1673ffffffffffffffffffffffffffffffffffffffff163373ffffffffffffffffffffffffffffffffffffffff1614156107f857600080fd5b600060056000848152602001908152602001600020828154811061081f5761081e613b8a565b5b90600052602060002090600602016040518060c001604052908160008201548152602001600182015481526020016002820160009054906101000a900473ffffffffffffffffffffffffffffffffffffffff1673ffffffffffffffffffffffffffffffffffffffff1673ffffffffffffffffffffffffffffffffffffffff1681526020016003820160009054906101000a900473ffffffffffffffffffffffffffffffffffffffff1673ffffffffffffffffffffffffffffffffffffffff1673ffffffffffffffffffffffffffffffffffffffff168152602001600482015481526020016005820160009054906101000a900460ff161515151581525050905080608001516004600085815260200190815260200160002060030154141561094657600080fd5b3373ffffffffffffffffffffffffffffffffffffffff16816060015173ffffffffffffffffffffffffffffffffffffffff161461098257600080fd5b8060a001511561099157600080fd5b60003373ffffffffffffffffffffffffffffffffffffffff1682608001516040516109bb90613bea565b60006040518083038185875af1925050503d80600081146109f8576040519150601f19603f3d011682016040523d82523d6000602084013e6109fd565b606091505b505090508015610a5b576001600560008681526020019081526020016000208481548110610a2e57610a2d613b8a565b5b906000526020600020906006020160050160006101000a81548160ff021916908315150217905550610a96565b6040517f08c379a0000000000000000000000000000000000000000000000000000000008152600401610a8d90613c4b565b60405180910390fd5b505060016000819055505050565b6006600082815260200190815260200160002060010160009054906101000a900473ffffffffffffffffffffffffffffffffffffffff1673ffffffffffffffffffffffffffffffffffffffff163373ffffffffffffffffffffffffffffffffffffffff1614610b48576040517f08c379a0000000000000000000000000000000000000000000000000000000008152600401610b3f90613cb7565b60405180910390fd5b6006600082815260200190815260200160002060050160009054906101000a900460ff16610bab576040517f08c379a0000000000000000000000000000000000000000000000000000000008152600401610ba290613d23565b60405180910390fd5b60006006600083815260200190815260200160002060050160006101000a81548160ff0219169083151502179055506006600082815260200190815260200160002060000160009054906101000a900473ffffffffffffffffffffffffffffffffffffffff1673ffffffffffffffffffffffffffffffffffffffff166342842e0e306006600085815260200190815260200160002060010160009054906101000a900473ffffffffffffffffffffffffffffffffffffffff1660066000868152602001908152602001600020600201546040518463ffffffff1660e01b8152600401610c9993929190613ae7565b600060405180830381600087803b158015610cb357600080fd5b505af1158015610cc7573d6000803e3d6000fd5b5050505050565b60026000541415610d14576040517f08c379a0000000000000000000000000000000000000000000000000000000008152600401610d0b90613b6a565b60405180910390fd5b60026000819055506000600560008481526020019081526020016000208281548110610d4357610d42613b8a565b5b90600052602060002090600602016040518060c001604052908160008201548152602001600182015481526020016002820160009054906101000a900473ffffffffffffffffffffffffffffffffffffffff1673ffffffffffffffffffffffffffffffffffffffff1673ffffffffffffffffffffffffffffffffffffffff1681526020016003820160009054906101000a900473ffffffffffffffffffffffffffffffffffffffff1673ffffffffffffffffffffffffffffffffffffffff1673ffffffffffffffffffffffffffffffffffffffff168152602001600482015481526020016005820160009054906101000a900460ff16151515158152505090506004600084815260200190815260200160002060070160009054906101000a900473ffffffffffffffffffffffffffffffffffffffff1673ffffffffffffffffffffffffffffffffffffffff163373ffffffffffffffffffffffffffffffffffffffff1614610eb157600080fd5b8060a0015115610ec057600080fd5b6004600084815260200190815260200160002060040160029054906101000a900460ff16610eed57600080fd5b6000610f456004600086815260200190815260200160002060010160009054906101000a900473ffffffffffffffffffffffffffffffffffffffff166004600087815260200190815260200160002060020154611c7f565b905060006004600086815260200190815260200160002060040160026101000a81548160ff021916908315150217905550816080015160046000868152602001908152602001600020600301819055506001600560008681526020019081526020016000208481548110610fbc57610fbb613b8a565b5b906000526020600020906006020160050160006101000a81548160ff0219169083151502179055506004600085815260200190815260200160002060010160009054906101000a900473ffffffffffffffffffffffffffffffffffffffff1673ffffffffffffffffffffffffffffffffffffffff166342842e0e30846060015160046000898152602001908152602001600020600201546040518463ffffffff1660e01b815260040161107193929190613ae7565b600060405180830381600087803b15801561108b57600080fd5b505af115801561109f573d6000803e3d6000fd5b505050506000826080015190506000606484608001516110bf9190613da1565b905060005b835181101561120757600061271086608001518684815181106110ea576110e9613b8a565b5b6020026020010151602001516bffffffffffffffffffffffff1661110e9190613dd2565b6111189190613da1565b9050600085838151811061112f5761112e613b8a565b5b60200260200101516000015173ffffffffffffffffffffffffffffffffffffffff168260405161115e90613bea565b60006040518083038185875af1925050503d806000811461119b576040519150601f19603f3d011682016040523d82523d6000602084013e6111a0565b606091505b50509050806111e4576040517f08c379a00000000000000000000000000000000000000000000000000000000081526004016111db90613e78565b60405180910390fd5b81856111f09190613e98565b9450505080806111ff90613ecc565b9150506110c4565b5060003373ffffffffffffffffffffffffffffffffffffffff16828461122d9190613e98565b60405161123990613bea565b60006040518083038185875af1925050503d8060008114611276576040519150601f19603f3d011682016040523d82523d6000602084013e61127b565b606091505b50509050806112bf576040517f08c379a00000000000000000000000000000000000000000000000000000000081526004016112b690613f61565b60405180910390fd5b6000600360009054906101000a900473ffffffffffffffffffffffffffffffffffffffff1673ffffffffffffffffffffffffffffffffffffffff168360405161130790613bea565b60006040518083038185875af1925050503d8060008114611344576040519150601f19603f3d011682016040523d82523d6000602084013e611349565b606091505b505090508061138d576040517f08c379a000000000000000000000000000000000000000000000000000000000815260040161138490613fcd565b60405180910390fd5b7fc1a33fc6bb7dd982480f7d209db0c9ee0afb428b5f804be0268c066863032e4c86608001516040516113c09190613732565b60405180910390a150505050505060016000819055505050565b3373ffffffffffffffffffffffffffffffffffffffff166004600083815260200190815260200160002060070160009054906101000a900473ffffffffffffffffffffffffffffffffffffffff1673ffffffffffffffffffffffffffffffffffffffff16141561144957600080fd5b6004600082815260200190815260200160002060040160029054906101000a900460ff1661147657600080fd5b6004600082815260200190815260200160002060040160019054906101000a900460ff166114a357600080fd5b60046000828152602001908152602001600020600601544211156114c657600080fd5b346064600460008481526020019081526020016000206003015460056114ec9190613dd2565b6114f69190613da1565b60046000848152602001908152602001600020600301546115179190613fed565b1115611558576040517f08c379a000000000000000000000000000000000000000000000000000000000815260040161154f906140b5565b60405180910390fd5b60006040518060c00160405280600560008581526020019081526020016000208054905081526020018381526020016004600085815260200190815260200160002060070160009054906101000a900473ffffffffffffffffffffffffffffffffffffffff1673ffffffffffffffffffffffffffffffffffffffff1681526020013373ffffffffffffffffffffffffffffffffffffffff16815260200134815260200160001515815250905060056000838152602001908152602001600020819080600181540180825580915050600190039060005260206000209060060201600090919091909150600082015181600001556020820151816001015560408201518160020160006101000a81548173ffffffffffffffffffffffffffffffffffffffff021916908373ffffffffffffffffffffffffffffffffffffffff16021790555060608201518160030160006101000a81548173ffffffffffffffffffffffffffffffffffffffff021916908373ffffffffffffffffffffffffffffffffffffffff1602179055506080820151816004015560a08201518160050160006101000a81548160ff02191690831515021790555050503460046000848152602001908152602001600020600301819055507f6dfa77b86c3d87864e5b10df6b47557084e5534674ca734ebe53741276ce52d181604051611759919061417d565b60405180910390a15050565b60046020528060005260406000206000915090508060000154908060010160009054906101000a900473ffffffffffffffffffffffffffffffffffffffff16908060020154908060030154908060040160009054906101000a900460ff16908060040160019054906101000a900460ff16908060040160029054906101000a900460ff16908060050154908060060154908060070160009054906101000a900473ffffffffffffffffffffffffffffffffffffffff1690508a565b600083838173ffffffffffffffffffffffffffffffffffffffff16636352211e826040518263ffffffff1660e01b815260040161185d9190613732565b602060405180830381865afa15801561187a573d6000803e3d6000fd5b505050506040513d601f19601f8201168201806040525081019061189e91906141ad565b73ffffffffffffffffffffffffffffffffffffffff163373ffffffffffffffffffffffffffffffffffffffff161461190b576040517f08c379a000000000000000000000000000000000000000000000000000000000815260040161190290614226565b60405180910390fd5b60008673ffffffffffffffffffffffffffffffffffffffff16636352211e866040518263ffffffff1660e01b81526004016119469190613732565b602060405180830381865afa158015611963573d6000803e3d6000fd5b505050506040513d601f19601f8201168201806040525081019061198791906141ad565b90503373ffffffffffffffffffffffffffffffffffffffff168173ffffffffffffffffffffffffffffffffffffffff1614156119f8576040517f08c379a00000000000000000000000000000000000000000000000000000000081526004016119ef90614292565b60405180910390fd5b6000611a046002613214565b90508773ffffffffffffffffffffffffffffffffffffffff166342842e0e33308a6040518463ffffffff1660e01b8152600401611a4393929190613ae7565b600060405180830381600087803b158015611a5d57600080fd5b505af1158015611a71573d6000803e3d6000fd5b5050505060006040518060c001604052808a73ffffffffffffffffffffffffffffffffffffffff1681526020013373ffffffffffffffffffffffffffffffffffffffff1681526020018981526020018473ffffffffffffffffffffffffffffffffffffffff168152602001888152602001600115158152509050806006600084815260200190815260200160002060008201518160000160006101000a81548173ffffffffffffffffffffffffffffffffffffffff021916908373ffffffffffffffffffffffffffffffffffffffff16021790555060208201518160010160006101000a81548173ffffffffffffffffffffffffffffffffffffffff021916908373ffffffffffffffffffffffffffffffffffffffff1602179055506040820151816002015560608201518160030160006101000a81548173ffffffffffffffffffffffffffffffffffffffff021916908373ffffffffffffffffffffffffffffffffffffffff1602179055506080820151816004015560a08201518160050160006101000a81548160ff021916908315150217905550905050611c156002613222565b818373ffffffffffffffffffffffffffffffffffffffff163373ffffffffffffffffffffffffffffffffffffffff167fffd321d9ac6e5d361fa3cfa4ee752259774415efa4ac8d50669dce82c183b8eb60405160405180910390a481955050505050509392505050565b60608273ffffffffffffffffffffffffffffffffffffffff1663bb3bafd6836040518263ffffffff1660e01b8152600401611cba9190613732565b600060405180830381865afa158015611cd7573d6000803e3d6000fd5b505050506040513d6000823e3d601f19601f82011682018060405250810190611d009190614427565b905092915050565b60026000541415611d4e576040517f08c379a0000000000000000000000000000000000000000000000000000000008152600401611d4590613b6a565b60405180910390fd5b600260008190555060006004600083815260200190815260200160002060405180610140016040529081600082015481526020016001820160009054906101000a900473ffffffffffffffffffffffffffffffffffffffff1673ffffffffffffffffffffffffffffffffffffffff1673ffffffffffffffffffffffffffffffffffffffff16815260200160028201548152602001600382015481526020016004820160009054906101000a900460ff161515151581526020016004820160019054906101000a900460ff161515151581526020016004820160029054906101000a900460ff1615151515815260200160058201548152602001600682015481526020016007820160009054906101000a900473ffffffffffffffffffffffffffffffffffffffff1673ffffffffffffffffffffffffffffffffffffffff1673ffffffffffffffffffffffffffffffffffffffff168152505090506000611ebc82602001518360400151611c7f565b90508160c00151611f02576040517f08c379a0000000000000000000000000000000000000000000000000000000008152600401611ef9906144bc565b60405180910390fd5b600073ffffffffffffffffffffffffffffffffffffffff163373ffffffffffffffffffffffffffffffffffffffff1614158015611f70575081610120015173ffffffffffffffffffffffffffffffffffffffff163373ffffffffffffffffffffffffffffffffffffffff1614155b611faf576040517f08c379a0000000000000000000000000000000000000000000000000000000008152600401611fa690614528565b60405180910390fd5b8160a0015115611fbe57600080fd5b8160600151341015612005576040517f08c379a0000000000000000000000000000000000000000000000000000000008152600401611ffc90614594565b60405180910390fd5b6120216004600085815260200190815260200160002033613238565b60003490506000349050600060643461203a9190613da1565b905060005b845181101561217e5760006127108487848151811061206157612060613b8a565b5b6020026020010151602001516bffffffffffffffffffffffff166120859190613dd2565b61208f9190613da1565b905060008683815181106120a6576120a5613b8a565b5b60200260200101516000015173ffffffffffffffffffffffffffffffffffffffff16826040516120d590613bea565b60006040518083038185875af1925050503d8060008114612112576040519150601f19603f3d011682016040523d82523d6000602084013e612117565b606091505b505090508061215b576040517f08c379a000000000000000000000000000000000000000000000000000000000815260040161215290614600565b60405180910390fd5b81866121679190613e98565b95505050808061217690613ecc565b91505061203f565b50600085610120015173ffffffffffffffffffffffffffffffffffffffff1682856121a99190613e98565b6040516121b590613bea565b60006040518083038185875af1925050503d80600081146121f2576040519150601f19603f3d011682016040523d82523d6000602084013e6121f7565b606091505b505090508061223b576040517f08c379a000000000000000000000000000000000000000000000000000000000815260040161223290613f61565b60405180910390fd5b6000600360009054906101000a900473ffffffffffffffffffffffffffffffffffffffff1673ffffffffffffffffffffffffffffffffffffffff168360405161228390613bea565b60006040518083038185875af1925050503d80600081146122c0576040519150601f19603f3d011682016040523d82523d6000602084013e6122c5565b606091505b5050905080612309576040517f08c379a000000000000000000000000000000000000000000000000000000000815260040161230090613fcd565b60405180910390fd5b866020015173ffffffffffffffffffffffffffffffffffffffff166342842e0e30338a604001516040518463ffffffff1660e01b815260040161234e93929190613ae7565b600060405180830381600087803b15801561236857600080fd5b505af115801561237c573d6000803e3d6000fd5b5050505050505050505050600160008190555050565b600560205281600052604060002081815481106123ae57600080fd5b9060005260206000209060060201600091509150508060000154908060010154908060020160009054906101000a900473ffffffffffffffffffffffffffffffffffffffff16908060030160009054906101000a900473ffffffffffffffffffffffffffffffffffffffff16908060040154908060050160009054906101000a900460ff16905086565b6002600054141561247e576040517f08c379a000000000000000000000000000000000000000000000000000000000815260040161247590613b6a565b60405180910390fd5b60026000819055506004600082815260200190815260200160002060070160009054906101000a900473ffffffffffffffffffffffffffffffffffffffff1673ffffffffffffffffffffffffffffffffffffffff163373ffffffffffffffffffffffffffffffffffffffff161461252a576040517f08c379a000000000000000000000000000000000000000000000000000000000815260040161252190613cb7565b60405180910390fd5b6004600082815260200190815260200160002060040160029054906101000a900460ff1661258d576040517f08c379a00000000000000000000000000000000000000000000000000000000081526004016125849061466c565b60405180910390fd5b6000600460008381526020019081526020016000206003018190555060006004600083815260200190815260200160002060040160026101000a81548160ff0219169083151502179055506004600082815260200190815260200160002060010160009054906101000a900473ffffffffffffffffffffffffffffffffffffffff1673ffffffffffffffffffffffffffffffffffffffff166342842e0e306004600085815260200190815260200160002060070160009054906101000a900473ffffffffffffffffffffffffffffffffffffffff1660046000868152602001908152602001600020600201546040518463ffffffff1660e01b815260040161269793929190613ae7565b600060405180830381600087803b1580156126b157600080fd5b505af11580156126c5573d6000803e3d6000fd5b50505050600160008190555050565b60066020528060005260406000206000915090508060000160009054906101000a900473ffffffffffffffffffffffffffffffffffffffff16908060010160009054906101000a900473ffffffffffffffffffffffffffffffffffffffff16908060020154908060030160009054906101000a900473ffffffffffffffffffffffffffffffffffffffff16908060040154908060050160009054906101000a900460ff16905086565b6000600660008381526020019081526020016000206040518060c00160405290816000820160009054906101000a900473ffffffffffffffffffffffffffffffffffffffff1673ffffffffffffffffffffffffffffffffffffffff1673ffffffffffffffffffffffffffffffffffffffff1681526020016001820160009054906101000a900473ffffffffffffffffffffffffffffffffffffffff1673ffffffffffffffffffffffffffffffffffffffff1673ffffffffffffffffffffffffffffffffffffffff168152602001600282015481526020016003820160009054906101000a900473ffffffffffffffffffffffffffffffffffffffff1673ffffffffffffffffffffffffffffffffffffffff1673ffffffffffffffffffffffffffffffffffffffff168152602001600482015481526020016005820160009054906101000a900460ff16151515158152505090508060a00151612914576040517f08c379a000000000000000000000000000000000000000000000000000000000815260040161290b90613a5b565b60405180910390fd5b3373ffffffffffffffffffffffffffffffffffffffff16816060015173ffffffffffffffffffffffffffffffffffffffff1614612986576040517f08c379a000000000000000000000000000000000000000000000000000000000815260040161297d90613ac7565b60405180910390fd5b60006006600084815260200190815260200160002060050160006101000a81548160ff021916908315150217905550806000015173ffffffffffffffffffffffffffffffffffffffff166342842e0e30836020015184604001516040518463ffffffff1660e01b81526004016129fe93929190613ae7565b600060405180830381600087803b158015612a1857600080fd5b505af1158015612a2c573d6000803e3d6000fd5b505050505050565b83838173ffffffffffffffffffffffffffffffffffffffff16636352211e826040518263ffffffff1660e01b8152600401612a6f9190613732565b602060405180830381865afa158015612a8c573d6000803e3d6000fd5b505050506040513d601f19601f82011682018060405250810190612ab091906141ad565b73ffffffffffffffffffffffffffffffffffffffff163373ffffffffffffffffffffffffffffffffffffffff1614612b1d576040517f08c379a0000000000000000000000000000000000000000000000000000000008152600401612b1490614226565b60405180910390fd5b60026000541415612b63576040517f08c379a0000000000000000000000000000000000000000000000000000000008152600401612b5a90613b6a565b60405180910390fd5b6002600081905550600073ffffffffffffffffffffffffffffffffffffffff168673ffffffffffffffffffffffffffffffffffffffff161415612ba557600080fd5b612baf6001613222565b8573ffffffffffffffffffffffffffffffffffffffff166342842e0e3330886040518463ffffffff1660e01b8152600401612bec93929190613ae7565b600060405180830381600087803b158015612c0657600080fd5b505af1158015612c1a573d6000803e3d6000fd5b505050506000604051806101400160405280612c366001613214565b81526020018873ffffffffffffffffffffffffffffffffffffffff1681526020018781526020018681526020016000151581526020016001151581526020016001151581526020014281526020018542612c909190613fed565b81526020013373ffffffffffffffffffffffffffffffffffffffff1681525090508060046000612cc06001613214565b81526020019081526020016000206000820151816000015560208201518160010160006101000a81548173ffffffffffffffffffffffffffffffffffffffff021916908373ffffffffffffffffffffffffffffffffffffffff160217905550604082015181600201556060820151816003015560808201518160040160006101000a81548160ff02191690831515021790555060a08201518160040160016101000a81548160ff02191690831515021790555060c08201518160040160026101000a81548160ff02191690831515021790555060e0820151816005015561010082015181600601556101208201518160070160006101000a81548173ffffffffffffffffffffffffffffffffffffffff021916908373ffffffffffffffffffffffffffffffffffffffff1602179055509050507f2c28b1a4996f07ef4457782603fcee3454f1790eedb957cf72f54c35e12cb0b281612e1f6001613214565b604051612e2d929190614758565b60405180910390a1506001600081905550505050505050565b82828173ffffffffffffffffffffffffffffffffffffffff16636352211e826040518263ffffffff1660e01b8152600401612e819190613732565b602060405180830381865afa158015612e9e573d6000803e3d6000fd5b505050506040513d601f19601f82011682018060405250810190612ec291906141ad565b73ffffffffffffffffffffffffffffffffffffffff163373ffffffffffffffffffffffffffffffffffffffff1614612f2f576040517f08c379a0000000000000000000000000000000000000000000000000000000008152600401612f2690614226565b60405180910390fd5b60026000541415612f75576040517f08c379a0000000000000000000000000000000000000000000000000000000008152600401612f6c90613b6a565b60405180910390fd5b6002600081905550612f876001613222565b8473ffffffffffffffffffffffffffffffffffffffff166342842e0e3330876040518463ffffffff1660e01b8152600401612fc493929190613ae7565b600060405180830381600087803b158015612fde57600080fd5b505af1158015612ff2573d6000803e3d6000fd5b50505050600060405180610140016040528061300e6001613214565b81526020018773ffffffffffffffffffffffffffffffffffffffff16815260200186815260200185815260200160011515815260200160001515815260200160011515815260200160008152602001600081526020013373ffffffffffffffffffffffffffffffffffffffff168152509050806004600061308f6001613214565b81526020019081526020016000206000820151816000015560208201518160010160006101000a81548173ffffffffffffffffffffffffffffffffffffffff021916908373ffffffffffffffffffffffffffffffffffffffff160217905550604082015181600201556060820151816003015560808201518160040160006101000a81548160ff02191690831515021790555060a08201518160040160016101000a81548160ff02191690831515021790555060c08201518160040160026101000a81548160ff02191690831515021790555060e0820151816005015561010082015181600601556101208201518160070160006101000a81548173ffffffffffffffffffffffffffffffffffffffff021916908373ffffffffffffffffffffffffffffffffffffffff1602179055509050507f2c28b1a4996f07ef4457782603fcee3454f1790eedb957cf72f54c35e12cb0b2816131ee6001613214565b6040516131fc929190614758565b60405180910390a15060016000819055505050505050565b600081600001549050919050565b6001816000016000828254019250508190555050565b808260070160006101000a81548173ffffffffffffffffffffffffffffffffffffffff021916908373ffffffffffffffffffffffffffffffffffffffff16021790555060008260040160026101000a81548160ff02191690831515021790555060008260040160006101000a81548160ff02191690831515021790555060008260040160016101000a81548160ff0219169083151502179055505050565b6000604051905090565b600080fd5b600080fd5b600073ffffffffffffffffffffffffffffffffffffffff82169050919050565b6000613315826132ea565b9050919050565b6133258161330a565b811461333057600080fd5b50565b6000813590506133428161331c565b92915050565b6000819050919050565b61335b81613348565b811461336657600080fd5b50565b60008135905061337881613352565b92915050565b600080fd5b600080fd5b6000601f19601f8301169050919050565b7f4e487b7100000000000000000000000000000000000000000000000000000000600052604160045260246000fd5b6133d182613388565b810181811067ffffffffffffffff821117156133f0576133ef613399565b5b80604052505050565b60006134036132d6565b905061340f82826133c8565b919050565b600067ffffffffffffffff82111561342f5761342e613399565b5b61343882613388565b9050602081019050919050565b82818337600083830152505050565b600061346761346284613414565b6133f9565b90508281526020810184848401111561348357613482613383565b5b61348e848285613445565b509392505050565b600082601f8301126134ab576134aa61337e565b5b81356134bb848260208601613454565b91505092915050565b600080600080608085870312156134de576134dd6132e0565b5b60006134ec87828801613333565b94505060206134fd87828801613333565b935050604061350e87828801613369565b925050606085013567ffffffffffffffff81111561352f5761352e6132e5565b5b61353b87828801613496565b91505092959194509250565b60007fffffffff0000000000000000000000000000000000000000000000000000000082169050919050565b61357c81613547565b82525050565b60006020820190506135976000830184613573565b92915050565b6000602082840312156135b3576135b26132e0565b5b60006135c184828501613369565b91505092915050565b600080604083850312156135e1576135e06132e0565b5b60006135ef85828601613369565b925050602061360085828601613369565b9150509250929050565b61361381613348565b82525050565b6136228161330a565b82525050565b60008115159050919050565b61363d81613628565b82525050565b600061014082019050613659600083018d61360a565b613666602083018c613619565b613673604083018b61360a565b613680606083018a61360a565b61368d6080830189613634565b61369a60a0830188613634565b6136a760c0830187613634565b6136b460e083018661360a565b6136c261010083018561360a565b6136d0610120830184613619565b9b9a5050505050505050505050565b6000806000606084860312156136f8576136f76132e0565b5b600061370686828701613333565b935050602061371786828701613369565b925050604061372886828701613369565b9150509250925092565b6000602082019050613747600083018461360a565b92915050565b60008060408385031215613764576137636132e0565b5b600061377285828601613333565b925050602061378385828601613369565b9150509250929050565b600081519050919050565b600082825260208201905092915050565b6000819050602082019050919050565b60006137c4826132ea565b9050919050565b6137d4816137b9565b82525050565b60006bffffffffffffffffffffffff82169050919050565b6137fb816137da565b82525050565b60408201600082015161381760008501826137cb565b50602082015161382a60208501826137f2565b50505050565b600061383c8383613801565b60408301905092915050565b6000602082019050919050565b60006138608261378d565b61386a8185613798565b9350613875836137a9565b8060005b838110156138a657815161388d8882613830565b975061389883613848565b925050600181019050613879565b5085935050505092915050565b600060208201905081810360008301526138cd8184613855565b905092915050565b600060c0820190506138ea600083018961360a565b6138f7602083018861360a565b6139046040830187613619565b6139116060830186613619565b61391e608083018561360a565b61392b60a0830184613634565b979650505050505050565b600060c08201905061394b6000830189613619565b6139586020830188613619565b613965604083018761360a565b6139726060830186613619565b61397f608083018561360a565b61398c60a0830184613634565b979650505050505050565b600080600080608085870312156139b1576139b06132e0565b5b60006139bf87828801613333565b94505060206139d087828801613369565b93505060406139e187828801613369565b92505060606139f287828801613369565b91505092959194509250565b600082825260208201905092915050565b7f746f6b656e206d757374206265206f6e20737761700000000000000000000000600082015250565b6000613a456015836139fe565b9150613a5082613a0f565b602082019050919050565b60006020820190508181036000830152613a7481613a38565b9050919050565b7f4f6e6c79206f776e65722063616e206163636570742073776170000000000000600082015250565b6000613ab1601a836139fe565b9150613abc82613a7b565b602082019050919050565b60006020820190508181036000830152613ae081613aa4565b9050919050565b6000606082019050613afc6000830186613619565b613b096020830185613619565b613b16604083018461360a565b949350505050565b7f5265656e7472616e637947756172643a207265656e7472616e742063616c6c00600082015250565b6000613b54601f836139fe565b9150613b5f82613b1e565b602082019050919050565b60006020820190508181036000830152613b8381613b47565b9050919050565b7f4e487b7100000000000000000000000000000000000000000000000000000000600052603260045260246000fd5b600081905092915050565b50565b6000613bd4600083613bb9565b9150613bdf82613bc4565b600082019050919050565b6000613bf582613bc7565b9150819050919050565b7f4e6f204d6f6e6579206c65667421000000000000000000000000000000000000600082015250565b6000613c35600e836139fe565b9150613c4082613bff565b602082019050919050565b60006020820190508181036000830152613c6481613c28565b9050919050565b7f4f6e6c79206f776e65722063616e2063616e63656c2073616c65000000000000600082015250565b6000613ca1601a836139fe565b9150613cac82613c6b565b602082019050919050565b60006020820190508181036000830152613cd081613c94565b9050919050565b7f546f6b656e206e6f74206f6e2073776170000000000000000000000000000000600082015250565b6000613d0d6011836139fe565b9150613d1882613cd7565b602082019050919050565b60006020820190508181036000830152613d3c81613d00565b9050919050565b7f4e487b7100000000000000000000000000000000000000000000000000000000600052601260045260246000fd5b7f4e487b7100000000000000000000000000000000000000000000000000000000600052601160045260246000fd5b6000613dac82613348565b9150613db783613348565b925082613dc757613dc6613d43565b5b828204905092915050565b6000613ddd82613348565b9150613de883613348565b9250817fffffffffffffffffffffffffffffffffffffffffffffffffffffffffffffffff0483118215151615613e2157613e20613d72565b5b828202905092915050565b7f526f79616c7479207472616e73666572206661696c6564000000000000000000600082015250565b6000613e626017836139fe565b9150613e6d82613e2c565b602082019050919050565b60006020820190508181036000830152613e9181613e55565b9050919050565b6000613ea382613348565b9150613eae83613348565b925082821015613ec157613ec0613d72565b5b828203905092915050565b6000613ed782613348565b91507fffffffffffffffffffffffffffffffffffffffffffffffffffffffffffffffff821415613f0a57613f09613d72565b5b600182019050919050565b7f5472616e73666572206661696c65640000000000000000000000000000000000600082015250565b6000613f4b600f836139fe565b9150613f5682613f15565b602082019050919050565b60006020820190508181036000830152613f7a81613f3e565b9050919050565b7f466565205472616e73666572206661696c656400000000000000000000000000600082015250565b6000613fb76013836139fe565b9150613fc282613f81565b602082019050919050565b60006020820190508181036000830152613fe681613faa565b9050919050565b6000613ff882613348565b915061400383613348565b9250827fffffffffffffffffffffffffffffffffffffffffffffffffffffffffffffffff0382111561403857614037613d72565b5b828201905092915050565b7f4269642073686f756c64206265206d6f7265207468616e203525206f6620637560008201527f7272656e74206269640000000000000000000000000000000000000000000000602082015250565b600061409f6029836139fe565b91506140aa82614043565b604082019050919050565b600060208201905081810360008301526140ce81614092565b9050919050565b6140de81613348565b82525050565b6140ed8161330a565b82525050565b6140fc81613628565b82525050565b60c08201600082015161411860008501826140d5565b50602082015161412b60208501826140d5565b50604082015161413e60408501826140e4565b50606082015161415160608501826140e4565b50608082015161416460808501826140d5565b5060a082015161417760a08501826140f3565b50505050565b600060c0820190506141926000830184614102565b92915050565b6000815190506141a78161331c565b92915050565b6000602082840312156141c3576141c26132e0565b5b60006141d184828501614198565b91505092915050565b7f4f6e6c7920746f6b656e206f776e65722063616e206578656375746500000000600082015250565b6000614210601c836139fe565b915061421b826141da565b602082019050919050565b6000602082019050818103600083015261423f81614203565b9050919050565b7f43616e6e6f742053776170204265747765656e20596f757220546f6b656e7300600082015250565b600061427c601f836139fe565b915061428782614246565b602082019050919050565b600060208201905081810360008301526142ab8161426f565b9050919050565b600067ffffffffffffffff8211156142cd576142cc613399565b5b602082029050602081019050919050565b600080fd5b600080fd5b6142f1816137b9565b81146142fc57600080fd5b50565b60008151905061430e816142e8565b92915050565b61431d816137da565b811461432857600080fd5b50565b60008151905061433a81614314565b92915050565b600060408284031215614356576143556142e3565b5b61436060406133f9565b90506000614370848285016142ff565b60008301525060206143848482850161432b565b60208301525092915050565b60006143a361439e846142b2565b6133f9565b905080838252602082019050604084028301858111156143c6576143c56142de565b5b835b818110156143ef57806143db8882614340565b8452602084019350506040810190506143c8565b5050509392505050565b600082601f83011261440e5761440d61337e565b5b815161441e848260208601614390565b91505092915050565b60006020828403121561443d5761443c6132e0565b5b600082015167ffffffffffffffff81111561445b5761445a6132e5565b5b614467848285016143f9565b91505092915050565b7f746f6b656e206d757374206265206f6e2073616c650000000000000000000000600082015250565b60006144a66015836139fe565b91506144b182614470565b602082019050919050565b600060208201905081810360008301526144d581614499565b9050919050565b7f696e76616c696420616464726573730000000000000000000000000000000000600082015250565b6000614512600f836139fe565b915061451d826144dc565b602082019050919050565b6000602082019050818103600083015261454181614505565b9050919050565b7f76616c7565206c657373207468616e2070726963650000000000000000000000600082015250565b600061457e6015836139fe565b915061458982614548565b602082019050919050565b600060208201905081810360008301526145ad81614571565b9050919050565b7f526f79616c7479205472616e73666572206661696c6564000000000000000000600082015250565b60006145ea6017836139fe565b91506145f5826145b4565b602082019050919050565b60006020820190508181036000830152614619816145dd565b9050919050565b7f546f6b656e206e6f74206f6e2073616c65000000000000000000000000000000600082015250565b60006146566011836139fe565b915061466182614620565b602082019050919050565b6000602082019050818103600083015261468581614649565b9050919050565b610140820160008201516146a360008501826140d5565b5060208201516146b660208501826140e4565b5060408201516146c960408501826140d5565b5060608201516146dc60608501826140d5565b5060808201516146ef60808501826140f3565b5060a082015161470260a08501826140f3565b5060c082015161471560c08501826140f3565b5060e082015161472860e08501826140d5565b5061010082015161473d6101008501826140d5565b506101208201516147526101208501826140e4565b50505050565b60006101608201905061476e600083018561468c565b61477c61014083018461360a565b939250505056fea26469706673582212208386e786761c58e37eddfe2da98ec1c95f11d4d3ce1cc8b29d251d45b0ee09b564736f6c634300080b0033",
  "immutableReferences": {},
  "source": "// SPDX-License-Identifier: MIT\npragma solidity >=0.4.22 <0.9.0;\n\nimport \"@openzeppelin/contracts/token/ERC721/utils/ERC721Holder.sol\";\nimport \"@openzeppelin/contracts/token/ERC721/ERC721.sol\";\nimport \"@openzeppelin/contracts/access/Ownable.sol\";\nimport \"@openzeppelin/contracts/security/ReentrancyGuard.sol\";\nimport \"@openzeppelin/contracts/utils/Counters.sol\";\nimport \"./piNFT.sol\";\nimport \"./utils/LibShare.sol\";\n\ncontract piMarket is ERC721Holder, ReentrancyGuard {\n    using Counters for Counters.Counter;\n    Counters.Counter internal _saleIdCounter;\n    Counters.Counter private _swapIdCounter;\n\n    address internal feeAddress;\n\n    struct TokenMeta {\n        uint256 saleId;\n        address tokenContractAddress;\n        uint256 tokenId;\n        uint256 price;\n        bool directSale;\n        bool bidSale;\n        bool status;\n        uint256 bidStartTime;\n        uint256 bidEndTime;\n        address currentOwner;\n    }\n\n    struct BidOrder {\n        uint256 bidId;\n        uint256 saleId;\n        address sellerAddress;\n        address buyerAddress;\n        uint256 price;\n        bool withdrawn;\n    }\n\n    struct Swap {\n        address NFTContractAddress;\n        address initiator;\n        uint256 initiatorNftId;\n        address secondUser;\n        uint256 secondUserNftId;\n        bool status;\n    }\n\n\n    mapping(uint256 => TokenMeta) public _tokenMeta;\n    mapping(uint256 => BidOrder[]) public Bids;\n    mapping (uint256 => Swap) public _swaps;\n\n    event TokenMetaReturn(TokenMeta data, uint256 id);\n    event BidOrderReturn(BidOrder bid);\n    event BidExecuted(uint256 price);\n    event SwapProposed(\n        address indexed from,\n        address indexed to,\n        uint256 indexed swapId\n    );\n\n    constructor(address _feeAddress) {\n        require(_feeAddress != address(0), 'Fee address cannot be zero');\n        feeAddress = _feeAddress;\n    }\n\n    modifier onlyOwnerOfToken(address _piNFTAddress, uint256 _tokenId) {\n        require(msg.sender == ERC721(_piNFTAddress).ownerOf(_tokenId), 'Only token owner can execute');\n        _;\n    }\n\n    function sellNFT(address _piNFTAddress, uint256 _tokenId, uint256 _price) external onlyOwnerOfToken(_piNFTAddress, _tokenId)  nonReentrant {\n\n        _saleIdCounter.increment();\n\n        //needs approval on frontend\n        ERC721(_piNFTAddress).safeTransferFrom(\n        msg.sender,\n        address(this),\n        _tokenId\n        );\n\n        TokenMeta memory meta = TokenMeta(\n            _saleIdCounter.current(),\n            _piNFTAddress,\n            _tokenId,\n            _price,\n            true,\n            false,\n            true,\n            0,\n            0,\n            msg.sender\n        );\n\n        _tokenMeta[_saleIdCounter.current()] = meta;\n\n        emit TokenMetaReturn(meta, _saleIdCounter.current());\n    }\n\n    function retrieveRoyalty(\n        address _contractAddress,\n        uint256 _tokenId\n    ) public view returns (LibShare.Share[] memory) {\n        return piNFT(_contractAddress).getRoyalties(_tokenId);\n    }\n\n    function BuyNFT(uint256 _saleId) external payable nonReentrant {\n        TokenMeta memory meta = _tokenMeta[_saleId];\n\n        LibShare.Share[] memory royalties = retrieveRoyalty(\n            meta.tokenContractAddress,\n            meta.tokenId\n        );\n\n        require(meta.status, 'token must be on sale');\n        require(msg.sender != address(0) && msg.sender != meta.currentOwner, 'invalid address');\n        require(!meta.bidSale);\n        require(msg.value >= meta.price, 'value less than price');\n\n        transfer(_tokenMeta[_saleId], msg.sender);\n\n        uint256 sum = msg.value;\n        uint256 val = msg.value;\n        uint256 fee = msg.value / 100;\n\n        for (uint256 i = 0; i < royalties.length; i++) {\n            uint256 amount = (royalties[i].value * val) / 10000;\n            // address payable receiver = royalties[i].account;\n            (bool royalSuccess, ) = payable(royalties[i].account).call{ value: amount }(\"\");\n            require(royalSuccess, \"Royalty Transfer failed\");\n            sum = sum - amount;\n        }\n\n        (bool isSuccess, ) = payable(meta.currentOwner).call{ value: (sum - fee) }(\"\");\n        require(isSuccess, \"Transfer failed\");\n        (bool feeSuccess, ) = payable(feeAddress).call{ value: fee }(\"\");\n        require(feeSuccess, \"Fee Transfer failed\");\n        ERC721(meta.tokenContractAddress).safeTransferFrom(\n        address(this),\n        msg.sender,\n        meta.tokenId\n        );\n    }\n\n    function cancelSale(uint256 _saleId) external nonReentrant {\n    require(msg.sender == _tokenMeta[_saleId].currentOwner, 'Only owner can cancel sale');\n    require(_tokenMeta[_saleId].status, 'Token not on sale');\n\n    _tokenMeta[_saleId].price = 0;\n    _tokenMeta[_saleId].status = false;\n    ERC721(_tokenMeta[_saleId].tokenContractAddress).safeTransferFrom(\n      address(this),\n      _tokenMeta[_saleId].currentOwner,\n      _tokenMeta[_saleId].tokenId\n    );\n  }\n\n    function SellNFT_byBid(\n    address _piNFTAddress,\n    uint256 _tokenId,\n    uint256 _price,\n    uint256 _bidTime\n  ) external onlyOwnerOfToken(_piNFTAddress, _tokenId) nonReentrant {\n    require(_piNFTAddress != address(0));\n    _saleIdCounter.increment();\n\n    //needs approval on frontend\n    ERC721(_piNFTAddress).safeTransferFrom(\n      msg.sender,\n      address(this),\n      _tokenId\n    );\n\n    TokenMeta memory meta = TokenMeta(\n      _saleIdCounter.current(),\n      _piNFTAddress,\n      _tokenId,\n      _price,\n      false,\n      true,\n      true,\n      block.timestamp,\n      block.timestamp + _bidTime,\n      msg.sender\n    );\n\n    _tokenMeta[_saleIdCounter.current()] = meta;\n\n    emit TokenMetaReturn(meta, _saleIdCounter.current());\n  }\n\n  function Bid(uint256 _saleId) external payable {\n    require(_tokenMeta[_saleId].currentOwner != msg.sender);\n    require(_tokenMeta[_saleId].status);\n    require(_tokenMeta[_saleId].bidSale);\n    require(block.timestamp <= _tokenMeta[_saleId].bidEndTime);\n    require(\n      _tokenMeta[_saleId].price + ((5 * _tokenMeta[_saleId].price) / 100) <=\n        msg.value,\n        'Bid should be more than 5% of current bid'\n    );\n    //  require(_timeOfAuction[_saleId] >= block.timestamp,\"Auction Over\");\n\n    BidOrder memory bid = BidOrder(\n      Bids[_saleId].length,\n      _saleId,\n      _tokenMeta[_saleId].currentOwner,\n      msg.sender,\n      msg.value,\n      false\n    );\n    Bids[_saleId].push(bid);\n    _tokenMeta[_saleId].price = msg.value;\n\n    emit BidOrderReturn(bid);\n\n    }\n\n    function executeBidOrder(uint256 _saleId, uint256 _bidOrderID)\n    external\n    nonReentrant\n  {\n    BidOrder memory bids = Bids[_saleId][_bidOrderID];\n    require(msg.sender == _tokenMeta[_saleId].currentOwner);\n    require(!bids.withdrawn);\n    require(_tokenMeta[_saleId].status);\n\n    LibShare.Share[] memory royalties = retrieveRoyalty(\n      _tokenMeta[_saleId].tokenContractAddress,\n      _tokenMeta[_saleId].tokenId\n    );\n\n    _tokenMeta[_saleId].status = false;\n    _tokenMeta[_saleId].price = bids.price;\n    Bids[_saleId][_bidOrderID].withdrawn = true;\n\n    ERC721(_tokenMeta[_saleId].tokenContractAddress).safeTransferFrom(\n      address(this),\n      bids.buyerAddress,\n      _tokenMeta[_saleId].tokenId\n    );\n\n    uint256 sum = bids.price;\n    uint256 fee = bids.price / 100;\n\n    for (uint256 i = 0; i < royalties.length; i++) {\n      uint256 amount = (royalties[i].value * bids.price) /\n        10000;\n      // address payable receiver = royalties[i].account;\n      (bool royalSuccess, ) = payable(royalties[i].account).call{ value: amount }(\"\");\n      require(royalSuccess, \"Royalty transfer failed\");\n      sum = sum - amount;\n    }\n\n    (bool isSuccess, ) = payable(msg.sender).call{ value: (sum - fee) }(\"\");\n    require(isSuccess, \"Transfer failed\");\n    (bool feeSuccess, ) = payable(feeAddress).call{ value: fee }(\"\");\n    require(feeSuccess, \"Fee Transfer failed\");\n\n    emit BidExecuted(bids.price);\n\n  }\n\n    function withdrawBidMoney(uint256 _saleId, uint256 _bidId)\n    external\n    nonReentrant\n  {\n    require(msg.sender != _tokenMeta[_saleId].currentOwner);\n    // BidOrder[] memory bids = Bids[_tokenId];\n    BidOrder memory bids = Bids[_saleId][_bidId];\n    require(_tokenMeta[_saleId].price != bids.price);\n    require(bids.buyerAddress == msg.sender);\n    require(!bids.withdrawn);\n    (bool success, ) = payable(msg.sender).call{\n      value: bids.price\n    }(\"\");\n    if (success) {\n      Bids[_saleId][_bidId].withdrawn = true;\n    } else {\n      revert(\"No Money left!\");\n    }\n  }\n\n    function transfer(TokenMeta storage token, address _to ) internal{\n        token.currentOwner = _to;\n        token.status = false;\n        token.directSale = false ;\n        token.bidSale = false ;\n\n    }\n\n    function swapTokens(address piNFTAddress, uint256 token1, uint256 token2) public onlyOwnerOfToken(piNFTAddress, token1) returns(uint256) {\n        address token2Owner = ERC721((piNFTAddress)).ownerOf(token2);\n        require(token2Owner != msg.sender, \"Cannot Swap Between Your Tokens\");\n        uint256 swapsId = _swapIdCounter.current();\n\n        ERC721(piNFTAddress).safeTransferFrom(msg.sender, address(this), token1);\n\n        Swap memory swap = Swap(\n            piNFTAddress,\n            msg.sender,\n            token1,\n            token2Owner,\n            token2,\n            true\n        );\n\n        _swaps[swapsId] = swap;\n\n        _swapIdCounter.increment();\n\n        emit SwapProposed(\n            msg.sender,\n            token2Owner,\n            swapsId\n        );\n\n        return swapsId;\n    }\n\n    function cancelSwap(uint256 _swapId) public {\n      require(msg.sender == _swaps[_swapId].initiator, 'Only owner can cancel sale');\n      require(_swaps[_swapId].status, 'Token not on swap');\n      _swaps[_swapId].status = false;\n      ERC721(_swaps[_swapId].NFTContractAddress).safeTransferFrom(\n        address(this),\n        _swaps[_swapId].initiator,\n        _swaps[_swapId].initiatorNftId\n      );\n    }\n\n    function acceptSwap(uint256 swapId) public{\n        Swap memory swap = _swaps[swapId];\n        require(swap.status, \"token must be on swap\");\n        require(swap.secondUser == msg.sender, \"Only owner can accept swap\");\n        _swaps[swapId].status = false;\n        ERC721(swap.NFTContractAddress).safeTransferFrom(\n            address(this),\n            msg.sender,\n            swap.initiatorNftId\n        );\n        ERC721(swap.NFTContractAddress).safeTransferFrom(\n            msg.sender,\n            swap.initiator,\n            swap.secondUserNftId\n        );\n        \n    }\n\n    function rejectSwap(uint256 swapId) public{\n      Swap memory swap = _swaps[swapId];\n      require(swap.status, \"token must be on swap\");\n      require(swap.secondUser == msg.sender, \"Only owner can accept swap\");\n      _swaps[swapId].status = false;\n      ERC721(swap.NFTContractAddress).safeTransferFrom(\n            address(this),\n            swap.initiator,\n            swap.initiatorNftId\n        );\n    }\n}",
  "sourcePath": "/Users/parv/Desktop/Pandora/piNFTOfficial/aconomy-contract/contracts/piMarket.sol",
  "compiler": {
    "name": "solc",
    "version": "0.8.11+commit.d7f03943.Emscripten.clang"
  },
  "schemaVersion": "3.4.4",
  "updatedAt": "2022-10-11T06:38:55.125Z",
  "networkType": "ethereum",
  "devdoc": {
    "kind": "dev",
    "methods": {
      "onERC721Received(address,address,uint256,bytes)": {
        "details": "See {IERC721Receiver-onERC721Received}. Always returns `IERC721Receiver.onERC721Received.selector`."
      }
    },
    "version": 1
  },
  "userdoc": {
    "kind": "user",
    "methods": {},
    "version": 1
  }
}