{
  "contractName": "piNFT",
  "abi": [
    {
      "inputs": [
        {
          "internalType": "string",
          "name": "_name",
          "type": "string"
        },
        {
          "internalType": "string",
          "name": "_symbol",
          "type": "string"
        }
      ],
      "stateMutability": "nonpayable",
      "type": "constructor"
    },
    {
      "anonymous": false,
      "inputs": [
        {
          "indexed": true,
          "internalType": "address",
          "name": "owner",
          "type": "address"
        },
        {
          "indexed": true,
          "internalType": "address",
          "name": "approved",
          "type": "address"
        },
        {
          "indexed": true,
          "internalType": "uint256",
          "name": "tokenId",
          "type": "uint256"
        }
      ],
      "name": "Approval",
      "type": "event"
    },
    {
      "anonymous": false,
      "inputs": [
        {
          "indexed": true,
          "internalType": "address",
          "name": "owner",
          "type": "address"
        },
        {
          "indexed": true,
          "internalType": "address",
          "name": "operator",
          "type": "address"
        },
        {
          "indexed": false,
          "internalType": "bool",
          "name": "approved",
          "type": "bool"
        }
      ],
      "name": "ApprovalForAll",
      "type": "event"
    },
    {
      "anonymous": false,
      "inputs": [
        {
          "indexed": true,
          "internalType": "address",
          "name": "_from",
          "type": "address"
        },
        {
          "indexed": true,
          "internalType": "uint256",
          "name": "_tokenId",
          "type": "uint256"
        },
        {
          "indexed": true,
          "internalType": "address",
          "name": "_erc20Contract",
          "type": "address"
        },
        {
          "indexed": false,
          "internalType": "uint256",
          "name": "_value",
          "type": "uint256"
        }
      ],
      "name": "ReceivedERC20",
      "type": "event"
    },
    {
      "anonymous": false,
      "inputs": [
        {
          "indexed": true,
          "internalType": "uint256",
          "name": "tokenId",
          "type": "uint256"
        },
        {
          "components": [
            {
              "internalType": "address payable",
              "name": "account",
              "type": "address"
            },
            {
              "internalType": "uint96",
              "name": "value",
              "type": "uint96"
            }
          ],
          "indexed": true,
          "internalType": "struct LibShare.Share[]",
          "name": "royalties",
          "type": "tuple[]"
        }
      ],
      "name": "RoyaltiesSetForTokenId",
      "type": "event"
    },
    {
      "anonymous": false,
      "inputs": [
        {
          "indexed": true,
          "internalType": "address",
          "name": "from",
          "type": "address"
        },
        {
          "indexed": true,
          "internalType": "address",
          "name": "to",
          "type": "address"
        },
        {
          "indexed": true,
          "internalType": "uint256",
          "name": "tokenId",
          "type": "uint256"
        }
      ],
      "name": "Transfer",
      "type": "event"
    },
    {
      "anonymous": false,
      "inputs": [
        {
          "indexed": true,
          "internalType": "uint256",
          "name": "_tokenId",
          "type": "uint256"
        },
        {
          "indexed": true,
          "internalType": "address",
          "name": "_to",
          "type": "address"
        },
        {
          "indexed": true,
          "internalType": "address",
          "name": "_erc20Contract",
          "type": "address"
        },
        {
          "indexed": false,
          "internalType": "uint256",
          "name": "_value",
          "type": "uint256"
        }
      ],
      "name": "TransferERC20",
      "type": "event"
    },
    {
      "inputs": [
        {
          "internalType": "address",
          "name": "to",
          "type": "address"
        },
        {
          "internalType": "uint256",
          "name": "tokenId",
          "type": "uint256"
        }
      ],
      "name": "approve",
      "outputs": [],
      "stateMutability": "nonpayable",
      "type": "function"
    },
    {
      "inputs": [
        {
          "internalType": "address",
          "name": "owner",
          "type": "address"
        }
      ],
      "name": "balanceOf",
      "outputs": [
        {
          "internalType": "uint256",
          "name": "",
          "type": "uint256"
        }
      ],
      "stateMutability": "view",
      "type": "function",
      "constant": true
    },
    {
      "inputs": [
        {
          "internalType": "uint256",
          "name": "tokenId",
          "type": "uint256"
        }
      ],
      "name": "getApproved",
      "outputs": [
        {
          "internalType": "address",
          "name": "",
          "type": "address"
        }
      ],
      "stateMutability": "view",
      "type": "function",
      "constant": true
    },
    {
      "inputs": [
        {
          "internalType": "address",
          "name": "owner",
          "type": "address"
        },
        {
          "internalType": "address",
          "name": "operator",
          "type": "address"
        }
      ],
      "name": "isApprovedForAll",
      "outputs": [
        {
          "internalType": "bool",
          "name": "",
          "type": "bool"
        }
      ],
      "stateMutability": "view",
      "type": "function",
      "constant": true
    },
    {
      "inputs": [],
      "name": "name",
      "outputs": [
        {
          "internalType": "string",
          "name": "",
          "type": "string"
        }
      ],
      "stateMutability": "view",
      "type": "function",
      "constant": true
    },
    {
      "inputs": [
        {
          "internalType": "uint256",
          "name": "tokenId",
          "type": "uint256"
        }
      ],
      "name": "ownerOf",
      "outputs": [
        {
          "internalType": "address",
          "name": "",
          "type": "address"
        }
      ],
      "stateMutability": "view",
      "type": "function",
      "constant": true
    },
    {
      "inputs": [
        {
          "internalType": "uint256",
          "name": "",
          "type": "uint256"
        },
        {
          "internalType": "uint256",
          "name": "",
          "type": "uint256"
        }
      ],
      "name": "royaltiesByTokenId",
      "outputs": [
        {
          "internalType": "address payable",
          "name": "account",
          "type": "address"
        },
        {
          "internalType": "uint96",
          "name": "value",
          "type": "uint96"
        }
      ],
      "stateMutability": "view",
      "type": "function",
      "constant": true
    },
    {
      "inputs": [
        {
          "internalType": "address",
          "name": "from",
          "type": "address"
        },
        {
          "internalType": "address",
          "name": "to",
          "type": "address"
        },
        {
          "internalType": "uint256",
          "name": "tokenId",
          "type": "uint256"
        }
      ],
      "name": "safeTransferFrom",
      "outputs": [],
      "stateMutability": "nonpayable",
      "type": "function"
    },
    {
      "inputs": [
        {
          "internalType": "address",
          "name": "from",
          "type": "address"
        },
        {
          "internalType": "address",
          "name": "to",
          "type": "address"
        },
        {
          "internalType": "uint256",
          "name": "tokenId",
          "type": "uint256"
        },
        {
          "internalType": "bytes",
          "name": "_data",
          "type": "bytes"
        }
      ],
      "name": "safeTransferFrom",
      "outputs": [],
      "stateMutability": "nonpayable",
      "type": "function"
    },
    {
      "inputs": [
        {
          "internalType": "address",
          "name": "operator",
          "type": "address"
        },
        {
          "internalType": "bool",
          "name": "approved",
          "type": "bool"
        }
      ],
      "name": "setApprovalForAll",
      "outputs": [],
      "stateMutability": "nonpayable",
      "type": "function"
    },
    {
      "inputs": [
        {
          "internalType": "bytes4",
          "name": "interfaceId",
          "type": "bytes4"
        }
      ],
      "name": "supportsInterface",
      "outputs": [
        {
          "internalType": "bool",
          "name": "",
          "type": "bool"
        }
      ],
      "stateMutability": "view",
      "type": "function",
      "constant": true
    },
    {
      "inputs": [],
      "name": "symbol",
      "outputs": [
        {
          "internalType": "string",
          "name": "",
          "type": "string"
        }
      ],
      "stateMutability": "view",
      "type": "function",
      "constant": true
    },
    {
      "inputs": [
        {
          "internalType": "uint256",
          "name": "tokenId",
          "type": "uint256"
        }
      ],
      "name": "tokenURI",
      "outputs": [
        {
          "internalType": "string",
          "name": "",
          "type": "string"
        }
      ],
      "stateMutability": "view",
      "type": "function",
      "constant": true
    },
    {
      "inputs": [
        {
          "internalType": "address",
          "name": "from",
          "type": "address"
        },
        {
          "internalType": "address",
          "name": "to",
          "type": "address"
        },
        {
          "internalType": "uint256",
          "name": "tokenId",
          "type": "uint256"
        }
      ],
      "name": "transferFrom",
      "outputs": [],
      "stateMutability": "nonpayable",
      "type": "function"
    },
    {
      "inputs": [
        {
          "internalType": "address",
          "name": "_to",
          "type": "address"
        },
        {
          "internalType": "string",
          "name": "_uri",
          "type": "string"
        },
        {
          "components": [
            {
              "internalType": "address payable",
              "name": "account",
              "type": "address"
            },
            {
              "internalType": "uint96",
              "name": "value",
              "type": "uint96"
            }
          ],
          "internalType": "struct LibShare.Share[]",
          "name": "royalties",
          "type": "tuple[]"
        }
      ],
      "name": "mintNFT",
      "outputs": [
        {
          "internalType": "uint256",
          "name": "",
          "type": "uint256"
        }
      ],
      "stateMutability": "nonpayable",
      "type": "function"
    },
    {
      "inputs": [
        {
          "internalType": "uint256",
          "name": "_tokenId",
          "type": "uint256"
        }
      ],
      "name": "getRoyalties",
      "outputs": [
        {
          "components": [
            {
              "internalType": "address payable",
              "name": "account",
              "type": "address"
            },
            {
              "internalType": "uint96",
              "name": "value",
              "type": "uint96"
            }
          ],
          "internalType": "struct LibShare.Share[]",
          "name": "",
          "type": "tuple[]"
        }
      ],
      "stateMutability": "view",
      "type": "function",
      "constant": true
    },
    {
      "inputs": [
        {
          "internalType": "address",
          "name": "_from",
          "type": "address"
        },
        {
          "internalType": "uint256",
          "name": "_tokenId",
          "type": "uint256"
        },
        {
          "internalType": "address",
          "name": "_erc20Contract",
          "type": "address"
        },
        {
          "internalType": "uint256",
          "name": "_value",
          "type": "uint256"
        }
      ],
      "name": "addERC20",
      "outputs": [],
      "stateMutability": "nonpayable",
      "type": "function"
    },
    {
      "inputs": [
        {
          "internalType": "uint256",
          "name": "_tokenId",
          "type": "uint256"
        },
        {
          "internalType": "address",
          "name": "_nftReciever",
          "type": "address"
        },
        {
          "internalType": "address",
          "name": "_validatorAddress",
          "type": "address"
        },
        {
          "internalType": "address",
          "name": "_erc20Contract",
          "type": "address"
        },
        {
          "internalType": "uint256",
          "name": "_value",
          "type": "uint256"
        }
      ],
      "name": "redeemPiNFT",
      "outputs": [],
      "stateMutability": "nonpayable",
      "type": "function"
    },
    {
      "inputs": [
        {
          "internalType": "uint256",
          "name": "_tokenId",
          "type": "uint256"
        },
        {
          "internalType": "address",
          "name": "_nftReciever",
          "type": "address"
        },
        {
          "internalType": "address",
          "name": "_erc20Reciever",
          "type": "address"
        },
        {
          "internalType": "address",
          "name": "_erc20Contract",
          "type": "address"
        },
        {
          "internalType": "uint256",
          "name": "_value",
          "type": "uint256"
        }
      ],
      "name": "burnPiNFT",
      "outputs": [],
      "stateMutability": "nonpayable",
      "type": "function"
    },
    {
      "inputs": [
        {
          "internalType": "uint256",
          "name": "_tokenId",
          "type": "uint256"
        },
        {
          "internalType": "address",
          "name": "_erc20Address",
          "type": "address"
        }
      ],
      "name": "viewBalance",
      "outputs": [
        {
          "internalType": "uint256",
          "name": "",
          "type": "uint256"
        }
      ],
      "stateMutability": "view",
      "type": "function",
      "constant": true
    }
  ],
  "bytecode": "0x60806040523480156200001157600080fd5b5060405162004e0038038062004e008339818101604052810190620000379190620002c2565b818181600090805190602001906200005192919062000075565b5080600190805190602001906200006a92919062000075565b5050505050620003ac565b828054620000839062000376565b90600052602060002090601f016020900481019282620000a75760008555620000f3565b82601f10620000c257805160ff1916838001178555620000f3565b82800160010185558215620000f3579182015b82811115620000f2578251825591602001919060010190620000d5565b5b50905062000102919062000106565b5090565b5b808211156200012157600081600090555060010162000107565b5090565b6000604051905090565b600080fd5b600080fd5b600080fd5b600080fd5b6000601f19601f8301169050919050565b7f4e487b7100000000000000000000000000000000000000000000000000000000600052604160045260246000fd5b6200018e8262000143565b810181811067ffffffffffffffff82111715620001b057620001af62000154565b5b80604052505050565b6000620001c562000125565b9050620001d3828262000183565b919050565b600067ffffffffffffffff821115620001f657620001f562000154565b5b620002018262000143565b9050602081019050919050565b60005b838110156200022e57808201518184015260208101905062000211565b838111156200023e576000848401525b50505050565b60006200025b6200025584620001d8565b620001b9565b9050828152602081018484840111156200027a57620002796200013e565b5b620002878482856200020e565b509392505050565b600082601f830112620002a757620002a662000139565b5b8151620002b984826020860162000244565b91505092915050565b60008060408385031215620002dc57620002db6200012f565b5b600083015167ffffffffffffffff811115620002fd57620002fc62000134565b5b6200030b858286016200028f565b925050602083015167ffffffffffffffff8111156200032f576200032e62000134565b5b6200033d858286016200028f565b9150509250929050565b7f4e487b7100000000000000000000000000000000000000000000000000000000600052602260045260246000fd5b600060028204905060018216806200038f57607f821691505b60208210811415620003a657620003a562000347565b5b50919050565b614a4480620003bc6000396000f3fe608060405234801561001057600080fd5b506004361061012c5760003560e01c8063726bb4cb116100ad578063c87b56dd11610071578063c87b56dd1461033d578063d51f299d1461036d578063e985e9c51461039d578063ee53b6a9146103cd578063fb2ef4a3146103fd5761012c565b8063726bb4cb1461029b57806395d89b41146102b7578063a22cb465146102d5578063b88d4fde146102f1578063bb3bafd61461030d5761012c565b806323b872dd116100f457806323b872dd146101e75780632b32c03b1461020357806342842e0e1461021f5780636352211e1461023b57806370a082311461026b5761012c565b806301ffc9a71461013157806306fdde0314610161578063081812fc1461017f578063095ea7b3146101af57806309d4470c146101cb575b600080fd5b61014b60048036038101906101469190612bd1565b61042e565b6040516101589190612c19565b60405180910390f35b610169610510565b6040516101769190612ccd565b60405180910390f35b61019960048036038101906101949190612d25565b6105a2565b6040516101a69190612d93565b60405180910390f35b6101c960048036038101906101c49190612dda565b610627565b005b6101e560048036038101906101e09190612e1a565b61073f565b005b61020160048036038101906101fc9190612e95565b610845565b005b61021d60048036038101906102189190612ee8565b6108a5565b005b61023960048036038101906102349190612e95565b6109e4565b005b61025560048036038101906102509190612d25565b610a04565b6040516102629190612d93565b60405180910390f35b61028560048036038101906102809190612f4f565b610ab6565b6040516102929190612f8b565b60405180910390f35b6102b560048036038101906102b09190612e1a565b610b6e565b005b6102bf610c74565b6040516102cc9190612ccd565b60405180910390f35b6102ef60048036038101906102ea9190612fd2565b610d06565b005b61030b60048036038101906103069190613147565b610d1c565b005b61032760048036038101906103229190612d25565b610d7e565b60405161033491906132f0565b60405180910390f35b61035760048036038101906103529190612d25565b610e80565b6040516103649190612ccd565b60405180910390f35b61038760048036038101906103829190613312565b610fd2565b6040516103949190612f8b565b60405180910390f35b6103b760048036038101906103b29190613352565b61102d565b6040516103c49190612c19565b60405180910390f35b6103e760048036038101906103e291906135a8565b6110c1565b6040516103f49190612f8b565b60405180910390f35b61041760048036038101906104129190613633565b611103565b604051610425929190613691565b60405180910390f35b60007f80ac58cd000000000000000000000000000000000000000000000000000000007bffffffffffffffffffffffffffffffffffffffffffffffffffffffff1916827bffffffffffffffffffffffffffffffffffffffffffffffffffffffff191614806104f957507f5b5e139f000000000000000000000000000000000000000000000000000000007bffffffffffffffffffffffffffffffffffffffffffffffffffffffff1916827bffffffffffffffffffffffffffffffffffffffffffffffffffffffff1916145b80610509575061050882611178565b5b9050919050565b60606000805461051f906136e9565b80601f016020809104026020016040519081016040528092919081815260200182805461054b906136e9565b80156105985780601f1061056d57610100808354040283529160200191610598565b820191906000526020600020905b81548152906001019060200180831161057b57829003601f168201915b5050505050905090565b60006105ad826111e2565b6105ec576040517f08c379a00000000000000000000000000000000000000000000000000000000081526004016105e39061378d565b60405180910390fd5b6004600083815260200190815260200160002060009054906101000a900473ffffffffffffffffffffffffffffffffffffffff169050919050565b600061063282610a04565b90508073ffffffffffffffffffffffffffffffffffffffff168373ffffffffffffffffffffffffffffffffffffffff1614156106a3576040517f08c379a000000000000000000000000000000000000000000000000000000000815260040161069a9061381f565b60405180910390fd5b8073ffffffffffffffffffffffffffffffffffffffff166106c261124e565b73ffffffffffffffffffffffffffffffffffffffff1614806106f157506106f0816106eb61124e565b61102d565b5b610730576040517f08c379a0000000000000000000000000000000000000000000000000000000008152600401610727906138b1565b60405180910390fd5b61073a8383611256565b505050565b8461074981610a04565b73ffffffffffffffffffffffffffffffffffffffff163373ffffffffffffffffffffffffffffffffffffffff16146107b6576040517f08c379a00000000000000000000000000000000000000000000000000000000081526004016107ad9061391d565b60405180910390fd5b600073ffffffffffffffffffffffffffffffffffffffff168573ffffffffffffffffffffffffffffffffffffffff161415610826576040517f08c379a000000000000000000000000000000000000000000000000000000000815260040161081d90613989565b60405180910390fd5b6108328685858561130f565b61083d3386886109e4565b505050505050565b61085661085061124e565b8261152f565b610895576040517f08c379a000000000000000000000000000000000000000000000000000000000815260040161088c90613a1b565b60405180910390fd5b6108a083838361160d565b505050565b3373ffffffffffffffffffffffffffffffffffffffff168473ffffffffffffffffffffffffffffffffffffffff1614610913576040517f08c379a000000000000000000000000000000000000000000000000000000000815260040161090a90613a87565b60405180910390fd5b61091f84848484611874565b8173ffffffffffffffffffffffffffffffffffffffff166323b872dd8530846040518463ffffffff1660e01b815260040161095c93929190613aa7565b6020604051808303816000875af115801561097b573d6000803e3d6000fd5b505050506040513d601f19601f8201168201806040525081019061099f9190613af3565b6109de576040517f08c379a00000000000000000000000000000000000000000000000000000000081526004016109d590613b6c565b60405180910390fd5b50505050565b6109ff83838360405180602001604052806000815250610d1c565b505050565b6000806002600084815260200190815260200160002060009054906101000a900473ffffffffffffffffffffffffffffffffffffffff169050600073ffffffffffffffffffffffffffffffffffffffff168173ffffffffffffffffffffffffffffffffffffffff161415610aad576040517f08c379a0000000000000000000000000000000000000000000000000000000008152600401610aa490613bfe565b60405180910390fd5b80915050919050565b60008073ffffffffffffffffffffffffffffffffffffffff168273ffffffffffffffffffffffffffffffffffffffff161415610b27576040517f08c379a0000000000000000000000000000000000000000000000000000000008152600401610b1e90613c90565b60405180910390fd5b600360008373ffffffffffffffffffffffffffffffffffffffff1673ffffffffffffffffffffffffffffffffffffffff168152602001908152602001600020549050919050565b84610b7881610a04565b73ffffffffffffffffffffffffffffffffffffffff163373ffffffffffffffffffffffffffffffffffffffff1614610be5576040517f08c379a0000000000000000000000000000000000000000000000000000000008152600401610bdc9061391d565b60405180910390fd5b600073ffffffffffffffffffffffffffffffffffffffff168573ffffffffffffffffffffffffffffffffffffffff161415610c55576040517f08c379a0000000000000000000000000000000000000000000000000000000008152600401610c4c90613989565b60405180910390fd5b610c618685858561130f565b610c6c3386886109e4565b505050505050565b606060018054610c83906136e9565b80601f0160208091040260200160405190810160405280929190818152602001828054610caf906136e9565b8015610cfc5780601f10610cd157610100808354040283529160200191610cfc565b820191906000526020600020905b815481529060010190602001808311610cdf57829003601f168201915b5050505050905090565b610d18610d1161124e565b8383611b0d565b5050565b610d2d610d2761124e565b8361152f565b610d6c576040517f08c379a0000000000000000000000000000000000000000000000000000000008152600401610d6390613a1b565b60405180910390fd5b610d7884848484611c7a565b50505050565b6060600a6000838152602001908152602001600020805480602002602001604051908101604052809291908181526020016000905b82821015610e75578382906000526020600020016040518060400160405290816000820160009054906101000a900473ffffffffffffffffffffffffffffffffffffffff1673ffffffffffffffffffffffffffffffffffffffff1673ffffffffffffffffffffffffffffffffffffffff1681526020016000820160149054906101000a90046bffffffffffffffffffffffff166bffffffffffffffffffffffff166bffffffffffffffffffffffff168152505081526020019060010190610db3565b505050509050919050565b6060610e8b826111e2565b610eca576040517f08c379a0000000000000000000000000000000000000000000000000000000008152600401610ec190613d22565b60405180910390fd5b6000600660008481526020019081526020016000208054610eea906136e9565b80601f0160208091040260200160405190810160405280929190818152602001828054610f16906136e9565b8015610f635780601f10610f3857610100808354040283529160200191610f63565b820191906000526020600020905b815481529060010190602001808311610f4657829003601f168201915b505050505090506000610f74611cd6565b9050600081511415610f8a578192505050610fcd565b600082511115610fbf578082604051602001610fa7929190613d7e565b60405160208183030381529060405292505050610fcd565b610fc884611ced565b925050505b919050565b60006008600084815260200190815260200160002060008373ffffffffffffffffffffffffffffffffffffffff1673ffffffffffffffffffffffffffffffffffffffff16815260200190815260200160002054905092915050565b6000600560008473ffffffffffffffffffffffffffffffffffffffff1673ffffffffffffffffffffffffffffffffffffffff16815260200190815260200160002060008373ffffffffffffffffffffffffffffffffffffffff1673ffffffffffffffffffffffffffffffffffffffff16815260200190815260200160002060009054906101000a900460ff16905092915050565b6000806110ce6007611d94565b90506110da8184611da2565b6110e485826120be565b6110ee81856120dc565b6110f86007612150565b809150509392505050565b600a602052816000526040600020818154811061111f57600080fd5b90600052602060002001600091509150508060000160009054906101000a900473ffffffffffffffffffffffffffffffffffffffff16908060000160149054906101000a90046bffffffffffffffffffffffff16905082565b60007f01ffc9a7000000000000000000000000000000000000000000000000000000007bffffffffffffffffffffffffffffffffffffffffffffffffffffffff1916827bffffffffffffffffffffffffffffffffffffffffffffffffffffffff1916149050919050565b60008073ffffffffffffffffffffffffffffffffffffffff166002600084815260200190815260200160002060009054906101000a900473ffffffffffffffffffffffffffffffffffffffff1673ffffffffffffffffffffffffffffffffffffffff1614159050919050565b600033905090565b816004600083815260200190815260200160002060006101000a81548173ffffffffffffffffffffffffffffffffffffffff021916908373ffffffffffffffffffffffffffffffffffffffff160217905550808273ffffffffffffffffffffffffffffffffffffffff166112c983610a04565b73ffffffffffffffffffffffffffffffffffffffff167f8c5be1e5ebec7d5bd14f71427d1e84f3dd0314c0f7b2291e5b200ac8c7c3b92560405160405180910390a45050565b600073ffffffffffffffffffffffffffffffffffffffff168373ffffffffffffffffffffffffffffffffffffffff16141561137f576040517f08c379a000000000000000000000000000000000000000000000000000000000815260040161137690613dee565b60405180910390fd5b600061138a85610a04565b90503373ffffffffffffffffffffffffffffffffffffffff168173ffffffffffffffffffffffffffffffffffffffff16146113fa576040517f08c379a00000000000000000000000000000000000000000000000000000000081526004016113f190613e5a565b60405180910390fd5b611405858484612166565b8273ffffffffffffffffffffffffffffffffffffffff1663a9059cbb85846040518363ffffffff1660e01b8152600401611440929190613e7a565b6020604051808303816000875af115801561145f573d6000803e3d6000fd5b505050506040513d601f19601f820116820180604052508101906114839190613af3565b6114c2576040517f08c379a00000000000000000000000000000000000000000000000000000000081526004016114b990613b6c565b60405180910390fd5b8273ffffffffffffffffffffffffffffffffffffffff168473ffffffffffffffffffffffffffffffffffffffff16867fa8352277873fc0d2b233b8127433da351a4164fa701ed6ff79655694222932c4856040516115209190612f8b565b60405180910390a45050505050565b600061153a826111e2565b611579576040517f08c379a000000000000000000000000000000000000000000000000000000000815260040161157090613f15565b60405180910390fd5b600061158483610a04565b90508073ffffffffffffffffffffffffffffffffffffffff168473ffffffffffffffffffffffffffffffffffffffff1614806115c657506115c5818561102d565b5b8061160457508373ffffffffffffffffffffffffffffffffffffffff166115ec846105a2565b73ffffffffffffffffffffffffffffffffffffffff16145b91505092915050565b8273ffffffffffffffffffffffffffffffffffffffff1661162d82610a04565b73ffffffffffffffffffffffffffffffffffffffff1614611683576040517f08c379a000000000000000000000000000000000000000000000000000000000815260040161167a90613fa7565b60405180910390fd5b600073ffffffffffffffffffffffffffffffffffffffff168273ffffffffffffffffffffffffffffffffffffffff1614156116f3576040517f08c379a00000000000000000000000000000000000000000000000000000000081526004016116ea90614039565b60405180910390fd5b6116fe8383836124f9565b611709600082611256565b6001600360008573ffffffffffffffffffffffffffffffffffffffff1673ffffffffffffffffffffffffffffffffffffffff16815260200190815260200160002060008282546117599190614088565b925050819055506001600360008473ffffffffffffffffffffffffffffffffffffffff1673ffffffffffffffffffffffffffffffffffffffff16815260200190815260200160002060008282546117b091906140bc565b92505081905550816002600083815260200190815260200160002060006101000a81548173ffffffffffffffffffffffffffffffffffffffff021916908373ffffffffffffffffffffffffffffffffffffffff160217905550808273ffffffffffffffffffffffffffffffffffffffff168473ffffffffffffffffffffffffffffffffffffffff167fddf252ad1be2c89b69c2b068fc378daa952ba7f163c4a11628f55a4df523b3ef60405160405180910390a461186f8383836124fe565b505050565b600073ffffffffffffffffffffffffffffffffffffffff1661189584610a04565b73ffffffffffffffffffffffffffffffffffffffff1614156118ec576040517f08c379a00000000000000000000000000000000000000000000000000000000081526004016118e39061415e565b60405180910390fd5b60008114156118fa57611b07565b60006008600085815260200190815260200160002060008473ffffffffffffffffffffffffffffffffffffffff1673ffffffffffffffffffffffffffffffffffffffff1681526020019081526020016000205490506000811415611a38576009600085815260200190815260200160002080549050600b600086815260200190815260200160002060008573ffffffffffffffffffffffffffffffffffffffff1673ffffffffffffffffffffffffffffffffffffffff1681526020019081526020016000208190555060096000858152602001908152602001600020839080600181540180825580915050600190039060005260206000200160009091909190916101000a81548173ffffffffffffffffffffffffffffffffffffffff021916908373ffffffffffffffffffffffffffffffffffffffff1602179055505b816008600086815260200190815260200160002060008573ffffffffffffffffffffffffffffffffffffffff1673ffffffffffffffffffffffffffffffffffffffff1681526020019081526020016000206000828254611a9891906140bc565b925050819055508273ffffffffffffffffffffffffffffffffffffffff16848673ffffffffffffffffffffffffffffffffffffffff167f684ce28ace37552c6bfb98b7cceda8ed55327078eafb5dfb31218e085638276385604051611afd9190612f8b565b60405180910390a4505b50505050565b8173ffffffffffffffffffffffffffffffffffffffff168373ffffffffffffffffffffffffffffffffffffffff161415611b7c576040517f08c379a0000000000000000000000000000000000000000000000000000000008152600401611b73906141ca565b60405180910390fd5b80600560008573ffffffffffffffffffffffffffffffffffffffff1673ffffffffffffffffffffffffffffffffffffffff16815260200190815260200160002060008473ffffffffffffffffffffffffffffffffffffffff1673ffffffffffffffffffffffffffffffffffffffff16815260200190815260200160002060006101000a81548160ff0219169083151502179055508173ffffffffffffffffffffffffffffffffffffffff168373ffffffffffffffffffffffffffffffffffffffff167f17307eab39ab6107e8899845ad3d59bd9653f200f220920489ca2b5937696c3183604051611c6d9190612c19565b60405180910390a3505050565b611c8584848461160d565b611c9184848484612503565b611cd0576040517f08c379a0000000000000000000000000000000000000000000000000000000008152600401611cc79061425c565b60405180910390fd5b50505050565b606060405180602001604052806000815250905090565b6060611cf8826111e2565b611d37576040517f08c379a0000000000000000000000000000000000000000000000000000000008152600401611d2e906142ee565b60405180910390fd5b6000611d41611cd6565b90506000815111611d615760405180602001604052806000815250611d8c565b80611d6b8461268b565b604051602001611d7c929190613d7e565b6040516020818303038152906040525b915050919050565b600081600001549050919050565b600a81511115611de7576040517f08c379a0000000000000000000000000000000000000000000000000000000008152600401611dde9061435a565b60405180910390fd5b600a60008381526020019081526020016000206000611e069190612a44565b6000805b825181101561203157600073ffffffffffffffffffffffffffffffffffffffff16838281518110611e3e57611e3d61437a565b5b60200260200101516000015173ffffffffffffffffffffffffffffffffffffffff161415611ea1576040517f08c379a0000000000000000000000000000000000000000000000000000000008152600401611e989061441b565b60405180910390fd5b6000838281518110611eb657611eb561437a565b5b6020026020010151602001516bffffffffffffffffffffffff161415611f11576040517f08c379a0000000000000000000000000000000000000000000000000000000008152600401611f0890614487565b60405180910390fd5b600a6000858152602001908152602001600020838281518110611f3757611f3661437a565b5b60200260200101519080600181540180825580915050600190039060005260206000200160009091909190915060008201518160000160006101000a81548173ffffffffffffffffffffffffffffffffffffffff021916908373ffffffffffffffffffffffffffffffffffffffff16021790555060208201518160000160146101000a8154816bffffffffffffffffffffffff02191690836bffffffffffffffffffffffff1602179055505050828181518110611ff757611ff661437a565b5b6020026020010151602001516bffffffffffffffffffffffff168261201c91906140bc565b91508080612029906144a7565b915050611e0a565b506127108110612076576040517f08c379a000000000000000000000000000000000000000000000000000000000815260040161206d9061453c565b60405180910390fd5b816040516120849190614658565b6040518091039020837fe23425cf56a81561c420f592eb54f21107c562f26c8c78c4a20d26920d244e6660405160405180910390a3505050565b6120d88282604051806020016040528060008152506127ec565b5050565b6120e5826111e2565b612124576040517f08c379a000000000000000000000000000000000000000000000000000000000815260040161211b906146e1565b60405180910390fd5b8060066000848152602001908152602001600020908051906020019061214b929190612a65565b505050565b6001816000016000828254019250508190555050565b6000811415612174576124f4565b60006008600085815260200190815260200160002060008473ffffffffffffffffffffffffffffffffffffffff1673ffffffffffffffffffffffffffffffffffffffff1681526020019081526020016000205490508181101561220c576040517f08c379a000000000000000000000000000000000000000000000000000000000815260040161220390614773565b60405180910390fd5b6000828261221a9190614088565b9050806008600087815260200190815260200160002060008673ffffffffffffffffffffffffffffffffffffffff1673ffffffffffffffffffffffffffffffffffffffff1681526020019081526020016000208190555060008114156124f15760006001600960008881526020019081526020016000208054905061229f9190614088565b905060006009600088815260200190815260200160002082815481106122c8576122c761437a565b5b9060005260206000200160009054906101000a900473ffffffffffffffffffffffffffffffffffffffff1690508073ffffffffffffffffffffffffffffffffffffffff168673ffffffffffffffffffffffffffffffffffffffff1614612442576000600b600089815260200190815260200160002060008873ffffffffffffffffffffffffffffffffffffffff1673ffffffffffffffffffffffffffffffffffffffff16815260200190815260200160002054905081600960008a815260200190815260200160002082815481106123a3576123a261437a565b5b9060005260206000200160006101000a81548173ffffffffffffffffffffffffffffffffffffffff021916908373ffffffffffffffffffffffffffffffffffffffff16021790555080600b60008a815260200190815260200160002060008473ffffffffffffffffffffffffffffffffffffffff1673ffffffffffffffffffffffffffffffffffffffff16815260200190815260200160002081905550505b600b600088815260200190815260200160002060008773ffffffffffffffffffffffffffffffffffffffff1673ffffffffffffffffffffffffffffffffffffffff16815260200190815260200160002060009055600960008881526020019081526020016000208054806124b9576124b8614793565b5b6001900381819060005260206000200160006101000a81549073ffffffffffffffffffffffffffffffffffffffff0219169055905550505b50505b505050565b505050565b505050565b60006125248473ffffffffffffffffffffffffffffffffffffffff16612847565b1561267e578373ffffffffffffffffffffffffffffffffffffffff1663150b7a0261254d61124e565b8786866040518563ffffffff1660e01b815260040161256f9493929190614817565b6020604051808303816000875af19250505080156125ab57506040513d601f19601f820116820180604052508101906125a89190614878565b60015b61262e573d80600081146125db576040519150601f19603f3d011682016040523d82523d6000602084013e6125e0565b606091505b50600081511415612626576040517f08c379a000000000000000000000000000000000000000000000000000000000815260040161261d9061425c565b60405180910390fd5b805181602001fd5b63150b7a0260e01b7bffffffffffffffffffffffffffffffffffffffffffffffffffffffff1916817bffffffffffffffffffffffffffffffffffffffffffffffffffffffff191614915050612683565b600190505b949350505050565b606060008214156126d3576040518060400160405280600181526020017f300000000000000000000000000000000000000000000000000000000000000081525090506127e7565b600082905060005b600082146127055780806126ee906144a7565b915050600a826126fe91906148d4565b91506126db565b60008167ffffffffffffffff8111156127215761272061301c565b5b6040519080825280601f01601f1916602001820160405280156127535781602001600182028036833780820191505090505b5090505b600085146127e05760018261276c9190614088565b9150600a8561277b9190614905565b603061278791906140bc565b60f81b81838151811061279d5761279c61437a565b5b60200101907effffffffffffffffffffffffffffffffffffffffffffffffffffffffffffff1916908160001a905350600a856127d991906148d4565b9450612757565b8093505050505b919050565b6127f6838361286a565b6128036000848484612503565b612842576040517f08c379a00000000000000000000000000000000000000000000000000000000081526004016128399061425c565b60405180910390fd5b505050565b6000808273ffffffffffffffffffffffffffffffffffffffff163b119050919050565b600073ffffffffffffffffffffffffffffffffffffffff168273ffffffffffffffffffffffffffffffffffffffff1614156128da576040517f08c379a00000000000000000000000000000000000000000000000000000000081526004016128d190614982565b60405180910390fd5b6128e3816111e2565b15612923576040517f08c379a000000000000000000000000000000000000000000000000000000000815260040161291a906149ee565b60405180910390fd5b61292f600083836124f9565b6001600360008473ffffffffffffffffffffffffffffffffffffffff1673ffffffffffffffffffffffffffffffffffffffff168152602001908152602001600020600082825461297f91906140bc565b92505081905550816002600083815260200190815260200160002060006101000a81548173ffffffffffffffffffffffffffffffffffffffff021916908373ffffffffffffffffffffffffffffffffffffffff160217905550808273ffffffffffffffffffffffffffffffffffffffff16600073ffffffffffffffffffffffffffffffffffffffff167fddf252ad1be2c89b69c2b068fc378daa952ba7f163c4a11628f55a4df523b3ef60405160405180910390a4612a40600083836124fe565b5050565b5080546000825590600052602060002090810190612a629190612aeb565b50565b828054612a71906136e9565b90600052602060002090601f016020900481019282612a935760008555612ada565b82601f10612aac57805160ff1916838001178555612ada565b82800160010185558215612ada579182015b82811115612ad9578251825591602001919060010190612abe565b5b509050612ae79190612b48565b5090565b5b80821115612b4457600080820160006101000a81549073ffffffffffffffffffffffffffffffffffffffff02191690556000820160146101000a8154906bffffffffffffffffffffffff021916905550600101612aec565b5090565b5b80821115612b61576000816000905550600101612b49565b5090565b6000604051905090565b600080fd5b600080fd5b60007fffffffff0000000000000000000000000000000000000000000000000000000082169050919050565b612bae81612b79565b8114612bb957600080fd5b50565b600081359050612bcb81612ba5565b92915050565b600060208284031215612be757612be6612b6f565b5b6000612bf584828501612bbc565b91505092915050565b60008115159050919050565b612c1381612bfe565b82525050565b6000602082019050612c2e6000830184612c0a565b92915050565b600081519050919050565b600082825260208201905092915050565b60005b83811015612c6e578082015181840152602081019050612c53565b83811115612c7d576000848401525b50505050565b6000601f19601f8301169050919050565b6000612c9f82612c34565b612ca98185612c3f565b9350612cb9818560208601612c50565b612cc281612c83565b840191505092915050565b60006020820190508181036000830152612ce78184612c94565b905092915050565b6000819050919050565b612d0281612cef565b8114612d0d57600080fd5b50565b600081359050612d1f81612cf9565b92915050565b600060208284031215612d3b57612d3a612b6f565b5b6000612d4984828501612d10565b91505092915050565b600073ffffffffffffffffffffffffffffffffffffffff82169050919050565b6000612d7d82612d52565b9050919050565b612d8d81612d72565b82525050565b6000602082019050612da86000830184612d84565b92915050565b612db781612d72565b8114612dc257600080fd5b50565b600081359050612dd481612dae565b92915050565b60008060408385031215612df157612df0612b6f565b5b6000612dff85828601612dc5565b9250506020612e1085828601612d10565b9150509250929050565b600080600080600060a08688031215612e3657612e35612b6f565b5b6000612e4488828901612d10565b9550506020612e5588828901612dc5565b9450506040612e6688828901612dc5565b9350506060612e7788828901612dc5565b9250506080612e8888828901612d10565b9150509295509295909350565b600080600060608486031215612eae57612ead612b6f565b5b6000612ebc86828701612dc5565b9350506020612ecd86828701612dc5565b9250506040612ede86828701612d10565b9150509250925092565b60008060008060808587031215612f0257612f01612b6f565b5b6000612f1087828801612dc5565b9450506020612f2187828801612d10565b9350506040612f3287828801612dc5565b9250506060612f4387828801612d10565b91505092959194509250565b600060208284031215612f6557612f64612b6f565b5b6000612f7384828501612dc5565b91505092915050565b612f8581612cef565b82525050565b6000602082019050612fa06000830184612f7c565b92915050565b612faf81612bfe565b8114612fba57600080fd5b50565b600081359050612fcc81612fa6565b92915050565b60008060408385031215612fe957612fe8612b6f565b5b6000612ff785828601612dc5565b925050602061300885828601612fbd565b9150509250929050565b600080fd5b600080fd5b7f4e487b7100000000000000000000000000000000000000000000000000000000600052604160045260246000fd5b61305482612c83565b810181811067ffffffffffffffff821117156130735761307261301c565b5b80604052505050565b6000613086612b65565b9050613092828261304b565b919050565b600067ffffffffffffffff8211156130b2576130b161301c565b5b6130bb82612c83565b9050602081019050919050565b82818337600083830152505050565b60006130ea6130e584613097565b61307c565b90508281526020810184848401111561310657613105613017565b5b6131118482856130c8565b509392505050565b600082601f83011261312e5761312d613012565b5b813561313e8482602086016130d7565b91505092915050565b6000806000806080858703121561316157613160612b6f565b5b600061316f87828801612dc5565b945050602061318087828801612dc5565b935050604061319187828801612d10565b925050606085013567ffffffffffffffff8111156131b2576131b1612b74565b5b6131be87828801613119565b91505092959194509250565b600081519050919050565b600082825260208201905092915050565b6000819050602082019050919050565b600061320182612d52565b9050919050565b613211816131f6565b82525050565b60006bffffffffffffffffffffffff82169050919050565b61323881613217565b82525050565b6040820160008201516132546000850182613208565b506020820151613267602085018261322f565b50505050565b6000613279838361323e565b60408301905092915050565b6000602082019050919050565b600061329d826131ca565b6132a781856131d5565b93506132b2836131e6565b8060005b838110156132e35781516132ca888261326d565b97506132d583613285565b9250506001810190506132b6565b5085935050505092915050565b6000602082019050818103600083015261330a8184613292565b905092915050565b6000806040838503121561332957613328612b6f565b5b600061333785828601612d10565b925050602061334885828601612dc5565b9150509250929050565b6000806040838503121561336957613368612b6f565b5b600061337785828601612dc5565b925050602061338885828601612dc5565b9150509250929050565b600067ffffffffffffffff8211156133ad576133ac61301c565b5b6133b682612c83565b9050602081019050919050565b60006133d66133d184613392565b61307c565b9050828152602081018484840111156133f2576133f1613017565b5b6133fd8482856130c8565b509392505050565b600082601f83011261341a57613419613012565b5b813561342a8482602086016133c3565b91505092915050565b600067ffffffffffffffff82111561344e5761344d61301c565b5b602082029050602081019050919050565b600080fd5b600080fd5b613472816131f6565b811461347d57600080fd5b50565b60008135905061348f81613469565b92915050565b61349e81613217565b81146134a957600080fd5b50565b6000813590506134bb81613495565b92915050565b6000604082840312156134d7576134d6613464565b5b6134e1604061307c565b905060006134f184828501613480565b6000830152506020613505848285016134ac565b60208301525092915050565b600061352461351f84613433565b61307c565b905080838252602082019050604084028301858111156135475761354661345f565b5b835b81811015613570578061355c88826134c1565b845260208401935050604081019050613549565b5050509392505050565b600082601f83011261358f5761358e613012565b5b813561359f848260208601613511565b91505092915050565b6000806000606084860312156135c1576135c0612b6f565b5b60006135cf86828701612dc5565b935050602084013567ffffffffffffffff8111156135f0576135ef612b74565b5b6135fc86828701613405565b925050604084013567ffffffffffffffff81111561361d5761361c612b74565b5b6136298682870161357a565b9150509250925092565b6000806040838503121561364a57613649612b6f565b5b600061365885828601612d10565b925050602061366985828601612d10565b9150509250929050565b61367c816131f6565b82525050565b61368b81613217565b82525050565b60006040820190506136a66000830185613673565b6136b36020830184613682565b9392505050565b7f4e487b7100000000000000000000000000000000000000000000000000000000600052602260045260246000fd5b6000600282049050600182168061370157607f821691505b60208210811415613715576137146136ba565b5b50919050565b7f4552433732313a20617070726f76656420717565727920666f72206e6f6e657860008201527f697374656e7420746f6b656e0000000000000000000000000000000000000000602082015250565b6000613777602c83612c3f565b91506137828261371b565b604082019050919050565b600060208201905081810360008301526137a68161376a565b9050919050565b7f4552433732313a20617070726f76616c20746f2063757272656e74206f776e6560008201527f7200000000000000000000000000000000000000000000000000000000000000602082015250565b6000613809602183612c3f565b9150613814826137ad565b604082019050919050565b60006020820190508181036000830152613838816137fc565b9050919050565b7f4552433732313a20617070726f76652063616c6c6572206973206e6f74206f7760008201527f6e6572206e6f7220617070726f76656420666f7220616c6c0000000000000000602082015250565b600061389b603883612c3f565b91506138a68261383f565b604082019050919050565b600060208201905081810360008301526138ca8161388e565b9050919050565b7f4f6e6c7920746f6b656e206f776e65722063616e206578656375746500000000600082015250565b6000613907601c83612c3f565b9150613912826138d1565b602082019050919050565b60006020820190508181036000830152613936816138fa565b9050919050565b7f63616e6e6f74207472616e7366657220746f207a65726f206164647265737300600082015250565b6000613973601f83612c3f565b915061397e8261393d565b602082019050919050565b600060208201905081810360008301526139a281613966565b9050919050565b7f4552433732313a207472616e736665722063616c6c6572206973206e6f74206f60008201527f776e6572206e6f7220617070726f766564000000000000000000000000000000602082015250565b6000613a05603183612c3f565b9150613a10826139a9565b604082019050919050565b60006020820190508181036000830152613a34816139f8565b9050919050565b7f6e6f7420616c6c6f77656420746f206164642045524332300000000000000000600082015250565b6000613a71601883612c3f565b9150613a7c82613a3b565b602082019050919050565b60006020820190508181036000830152613aa081613a64565b9050919050565b6000606082019050613abc6000830186612d84565b613ac96020830185612d84565b613ad66040830184612f7c565b949350505050565b600081519050613aed81612fa6565b92915050565b600060208284031215613b0957613b08612b6f565b5b6000613b1784828501613ade565b91505092915050565b7f4552433230207472616e73666572206661696c65642e00000000000000000000600082015250565b6000613b56601683612c3f565b9150613b6182613b20565b602082019050919050565b60006020820190508181036000830152613b8581613b49565b9050919050565b7f4552433732313a206f776e657220717565727920666f72206e6f6e657869737460008201527f656e7420746f6b656e0000000000000000000000000000000000000000000000602082015250565b6000613be8602983612c3f565b9150613bf382613b8c565b604082019050919050565b60006020820190508181036000830152613c1781613bdb565b9050919050565b7f4552433732313a2062616c616e636520717565727920666f7220746865207a6560008201527f726f206164647265737300000000000000000000000000000000000000000000602082015250565b6000613c7a602a83612c3f565b9150613c8582613c1e565b604082019050919050565b60006020820190508181036000830152613ca981613c6d565b9050919050565b7f45524337323155524953746f726167653a2055524920717565727920666f722060008201527f6e6f6e6578697374656e7420746f6b656e000000000000000000000000000000602082015250565b6000613d0c603183612c3f565b9150613d1782613cb0565b604082019050919050565b60006020820190508181036000830152613d3b81613cff565b9050919050565b600081905092915050565b6000613d5882612c34565b613d628185613d42565b9350613d72818560208601612c50565b80840191505092915050565b6000613d8a8285613d4d565b9150613d968284613d4d565b91508190509392505050565b7f63616e6e6f742073656e6420746f207a65726f20616464726573730000000000600082015250565b6000613dd8601b83612c3f565b9150613de382613da2565b602082019050919050565b60006020820190508181036000830152613e0781613dcb565b9050919050565b7f6f6e6c79206f776e65722063616e207472616e73666572000000000000000000600082015250565b6000613e44601783612c3f565b9150613e4f82613e0e565b602082019050919050565b60006020820190508181036000830152613e7381613e37565b9050919050565b6000604082019050613e8f6000830185612d84565b613e9c6020830184612f7c565b9392505050565b7f4552433732313a206f70657261746f7220717565727920666f72206e6f6e657860008201527f697374656e7420746f6b656e0000000000000000000000000000000000000000602082015250565b6000613eff602c83612c3f565b9150613f0a82613ea3565b604082019050919050565b60006020820190508181036000830152613f2e81613ef2565b9050919050565b7f4552433732313a207472616e736665722066726f6d20696e636f72726563742060008201527f6f776e6572000000000000000000000000000000000000000000000000000000602082015250565b6000613f91602583612c3f565b9150613f9c82613f35565b604082019050919050565b60006020820190508181036000830152613fc081613f84565b9050919050565b7f4552433732313a207472616e7366657220746f20746865207a65726f2061646460008201527f7265737300000000000000000000000000000000000000000000000000000000602082015250565b6000614023602483612c3f565b915061402e82613fc7565b604082019050919050565b6000602082019050818103600083015261405281614016565b9050919050565b7f4e487b7100000000000000000000000000000000000000000000000000000000600052601160045260246000fd5b600061409382612cef565b915061409e83612cef565b9250828210156140b1576140b0614059565b5b828203905092915050565b60006140c782612cef565b91506140d283612cef565b9250827fffffffffffffffffffffffffffffffffffffffffffffffffffffffffffffffff0382111561410757614106614059565b5b828201905092915050565b7f5f746f6b656e496420646f6573206e6f742065786973742e0000000000000000600082015250565b6000614148601883612c3f565b915061415382614112565b602082019050919050565b600060208201905081810360008301526141778161413b565b9050919050565b7f4552433732313a20617070726f766520746f2063616c6c657200000000000000600082015250565b60006141b4601983612c3f565b91506141bf8261417e565b602082019050919050565b600060208201905081810360008301526141e3816141a7565b9050919050565b7f4552433732313a207472616e7366657220746f206e6f6e20455243373231526560008201527f63656976657220696d706c656d656e7465720000000000000000000000000000602082015250565b6000614246603283612c3f565b9150614251826141ea565b604082019050919050565b6000602082019050818103600083015261427581614239565b9050919050565b7f4552433732314d657461646174613a2055524920717565727920666f72206e6f60008201527f6e6578697374656e7420746f6b656e0000000000000000000000000000000000602082015250565b60006142d8602f83612c3f565b91506142e38261427c565b604082019050919050565b60006020820190508181036000830152614307816142cb565b9050919050565b7f41746d6f737420313020726f79616c746965732063616e206265206164646564600082015250565b6000614344602083612c3f565b915061434f8261430e565b602082019050919050565b6000602082019050818103600083015261437381614337565b9050919050565b7f4e487b7100000000000000000000000000000000000000000000000000000000600052603260045260246000fd5b7f526f79616c747920726563697069656e742073686f756c64206265207072657360008201527f656e740000000000000000000000000000000000000000000000000000000000602082015250565b6000614405602383612c3f565b9150614410826143a9565b604082019050919050565b60006020820190508181036000830152614434816143f8565b9050919050565b7f526f79616c74792076616c75652073686f756c64206265203e20300000000000600082015250565b6000614471601b83612c3f565b915061447c8261443b565b602082019050919050565b600060208201905081810360008301526144a081614464565b9050919050565b60006144b282612cef565b91507fffffffffffffffffffffffffffffffffffffffffffffffffffffffffffffffff8214156144e5576144e4614059565b5b600182019050919050565b7f53756d206f6620526f79616c74696573203e2031303025000000000000000000600082015250565b6000614526601783612c3f565b9150614531826144f0565b602082019050919050565b6000602082019050818103600083015261455581614519565b9050919050565b600081905092915050565b614570816131f6565b82525050565b60006145828383614567565b60208301905092915050565b61459781613217565b82525050565b60006145a9838361458e565b60208301905092915050565b6000820160008201516145c88482614576565b93505060208201516145da848261459d565b935050505050565b60006145ee83836145b5565b60408301905092915050565b6000614605826131ca565b61460f818561455c565b935061461a836131e6565b8060005b8381101561464b57815161463288826145e2565b975061463d83613285565b92505060018101905061461e565b5085935050505092915050565b600061466482846145fa565b915081905092915050565b7f45524337323155524953746f726167653a2055524920736574206f66206e6f6e60008201527f6578697374656e7420746f6b656e000000000000000000000000000000000000602082015250565b60006146cb602e83612c3f565b91506146d68261466f565b604082019050919050565b600060208201905081810360008301526146fa816146be565b9050919050565b7f4e6f7420656e6f75676820746f6b656e20617661696c61626c6520746f20747260008201527f616e736665722e00000000000000000000000000000000000000000000000000602082015250565b600061475d602783612c3f565b915061476882614701565b604082019050919050565b6000602082019050818103600083015261478c81614750565b9050919050565b7f4e487b7100000000000000000000000000000000000000000000000000000000600052603160045260246000fd5b600081519050919050565b600082825260208201905092915050565b60006147e9826147c2565b6147f381856147cd565b9350614803818560208601612c50565b61480c81612c83565b840191505092915050565b600060808201905061482c6000830187612d84565b6148396020830186612d84565b6148466040830185612f7c565b818103606083015261485881846147de565b905095945050505050565b60008151905061487281612ba5565b92915050565b60006020828403121561488e5761488d612b6f565b5b600061489c84828501614863565b91505092915050565b7f4e487b7100000000000000000000000000000000000000000000000000000000600052601260045260246000fd5b60006148df82612cef565b91506148ea83612cef565b9250826148fa576148f96148a5565b5b828204905092915050565b600061491082612cef565b915061491b83612cef565b92508261492b5761492a6148a5565b5b828206905092915050565b7f4552433732313a206d696e7420746f20746865207a65726f2061646472657373600082015250565b600061496c602083612c3f565b915061497782614936565b602082019050919050565b6000602082019050818103600083015261499b8161495f565b9050919050565b7f4552433732313a20746f6b656e20616c7265616479206d696e74656400000000600082015250565b60006149d8601c83612c3f565b91506149e3826149a2565b602082019050919050565b60006020820190508181036000830152614a07816149cb565b905091905056fea26469706673582212209049a5303ea4994dcb642b43f5e130dc58a431fae134cb61000c969c3270fbc164736f6c634300080b0033",
  "immutableReferences": {},
  "source": "// SPDX-License-Identifier: MIT\npragma solidity >=0.4.22 <0.9.0;\n\nimport \"@openzeppelin/contracts/token/ERC20/IERC20.sol\";\nimport \"@openzeppelin/contracts/token/ERC721/extensions/ERC721URIStorage.sol\";\nimport \"@openzeppelin/contracts/utils/Counters.sol\";\nimport \"./utils/LibShare.sol\";\n\ncontract piNFT is ERC721URIStorage{\n\n    using Counters for Counters.Counter;\n    Counters.Counter private _tokenIdCounter;\n\n    // tokenId => (token contract => balance)\n    mapping(uint256 => mapping(address => uint256)) erc20Balances;\n\n    // tokenId => token contract\n    mapping(uint256 => address[]) erc20Contracts;\n\n    // tokenId => royalties\n    mapping(uint256 => LibShare.Share[]) public royaltiesByTokenId;\n\n    // tokenId => (token contract => token contract index)\n    mapping(uint256 => mapping(address => uint256)) erc20ContractIndex;\n\n    event ReceivedERC20(address indexed _from, uint256 indexed _tokenId, address indexed _erc20Contract, uint256 _value);\n    event TransferERC20(uint256 indexed _tokenId, address indexed _to, address indexed _erc20Contract, uint256 _value);\n    event RoyaltiesSetForTokenId(uint256 indexed tokenId, LibShare.Share[] indexed royalties);\n\n    constructor(string memory _name, string memory _symbol) ERC721(_name, _symbol) {}\n\n    modifier onlyOwnerOfToken(uint256 _tokenId) {\n        require(msg.sender == ERC721.ownerOf(_tokenId), 'Only token owner can execute');\n        _;\n    }\n    \n    // mints an ERC721 token to _to with _uri as token uri\n    function mintNFT(address _to, string memory _uri, LibShare.Share[] memory royalties) public returns (uint256) {\n        uint256 tokenId_ = _tokenIdCounter.current();\n        _setRoyaltiesByTokenId(tokenId_, royalties);\n        _safeMint(_to, tokenId_);\n        _setTokenURI(tokenId_, _uri);\n        _tokenIdCounter.increment();\n        return tokenId_;\n    }\n\n    function _setRoyaltiesByTokenId(\n        uint256 _tokenId,\n        LibShare.Share[] memory royalties\n    ) internal {\n        require(royalties.length <= 10, 'Atmost 10 royalties can be added');\n        delete royaltiesByTokenId[_tokenId];\n        uint256 sumRoyalties = 0;\n        for (uint256 i = 0; i < royalties.length; i++) {\n            require(\n                royalties[i].account != address(0x0),\n                \"Royalty recipient should be present\"\n            );\n            require(royalties[i].value != 0, \"Royalty value should be > 0\");\n            royaltiesByTokenId[_tokenId].push(royalties[i]);\n            sumRoyalties += royalties[i].value;\n        }\n        require(sumRoyalties < 10000, \"Sum of Royalties > 100%\");\n\n        emit RoyaltiesSetForTokenId(_tokenId, royalties);\n    }\n\n    function getRoyalties(uint256 _tokenId)\n        external\n        view\n        returns (LibShare.Share[] memory)\n    {\n        return royaltiesByTokenId[_tokenId];\n    }\n\n    // this function requires approval of tokens by _erc20Contract\n    // adds ERC20 tokens to the token with _tokenId(basically trasnfer ERC20 to this contract)\n    function addERC20(address _from, uint256 _tokenId, address _erc20Contract, uint256 _value) public {\n        require(_from == msg.sender, \"not allowed to add ERC20\");\n        erc20Received(_from, _tokenId, _erc20Contract, _value);\n        require(IERC20(_erc20Contract).transferFrom(_from, address(this), _value), \"ERC20 transfer failed.\");\n    }\n\n    // update the mappings for a token on recieving ERC20 tokens\n    function erc20Received(address _from, uint256 _tokenId, address _erc20Contract, uint256 _value) private {\n        require(ERC721.ownerOf(_tokenId) != address(0), \"_tokenId does not exist.\");\n        if (_value == 0) {\n            return;\n        }\n        uint256 erc20Balance = erc20Balances[_tokenId][_erc20Contract];\n        if (erc20Balance == 0) {\n            erc20ContractIndex[_tokenId][_erc20Contract] = erc20Contracts[_tokenId].length;\n            erc20Contracts[_tokenId].push(_erc20Contract);\n        }\n        erc20Balances[_tokenId][_erc20Contract] += _value;\n        emit ReceivedERC20(_from, _tokenId, _erc20Contract, _value);\n    }\n\n    function redeemPiNFT(uint256 _tokenId, address _nftReciever, address _validatorAddress, address _erc20Contract, uint256 _value) external onlyOwnerOfToken(_tokenId){\n        require(_nftReciever != address(0), 'cannot transfer to zero address');\n        _transferERC20(_tokenId, _validatorAddress, _erc20Contract, _value);\n        ERC721.safeTransferFrom(msg.sender, _nftReciever, _tokenId);\n    }\n\n    function burnPiNFT(uint256 _tokenId, address _nftReciever, address _erc20Reciever, address _erc20Contract, uint256 _value) external onlyOwnerOfToken(_tokenId){\n        require(_nftReciever != address(0), 'cannot transfer to zero address');\n        _transferERC20(_tokenId, _erc20Reciever, _erc20Contract, _value);\n        ERC721.safeTransferFrom(msg.sender, _nftReciever, _tokenId);\n    }\n\n    // transfers the ERC 20 tokens from _tokenId(this contract) to _to address\n    function _transferERC20(uint256 _tokenId, address _to, address _erc20Contract, uint256 _value) private {\n        require(_to != address(0), 'cannot send to zero address');\n        address rootOwner = ERC721.ownerOf(_tokenId);\n        require(rootOwner == msg.sender, 'only owner can transfer');\n        removeERC20(_tokenId, _erc20Contract, _value);\n        require(IERC20(_erc20Contract).transfer(_to, _value), \"ERC20 transfer failed.\");\n        emit TransferERC20(_tokenId, _to, _erc20Contract, _value);\n    }\n\n    // update the mappings for a token when ERC20 tokens gets removed\n    function removeERC20(uint256 _tokenId, address _erc20Contract, uint256 _value) private {\n        if (_value == 0) {\n            return;\n        }\n        uint256 erc20Balance = erc20Balances[_tokenId][_erc20Contract];\n        require(erc20Balance >= _value, \"Not enough token available to transfer.\");\n        uint256 newERC20Balance = erc20Balance - _value;\n        erc20Balances[_tokenId][_erc20Contract] = newERC20Balance;\n        if (newERC20Balance == 0) {\n            uint256 lastContractIndex = erc20Contracts[_tokenId].length - 1;\n            address lastContract = erc20Contracts[_tokenId][lastContractIndex];\n            if (_erc20Contract != lastContract) {\n                uint256 contractIndex = erc20ContractIndex[_tokenId][_erc20Contract];\n                erc20Contracts[_tokenId][contractIndex] = lastContract;\n                erc20ContractIndex[_tokenId][lastContract] = contractIndex;\n            }\n            delete erc20ContractIndex[_tokenId][_erc20Contract];\n            erc20Contracts[_tokenId].pop();\n\n        }\n    }\n\n    // view ERC 20 token balance of a token\n    function viewBalance(uint256 _tokenId, address _erc20Address) public view returns (uint256) {\n        return erc20Balances[_tokenId][_erc20Address];\n    }\n\n}",
  "sourcePath": "/Users/parv/Desktop/Pandora/piNFTOfficial/aconomy-contract/contracts/piNFT.sol",
  "compiler": {
    "name": "solc",
    "version": "0.8.11+commit.d7f03943.Emscripten.clang"
  },
  "schemaVersion": "3.4.4",
  "updatedAt": "2022-10-11T06:38:10.169Z",
  "networkType": "ethereum",
  "devdoc": {
    "kind": "dev",
    "methods": {
      "approve(address,uint256)": {
        "details": "See {IERC721-approve}."
      },
      "balanceOf(address)": {
        "details": "See {IERC721-balanceOf}."
      },
      "getApproved(uint256)": {
        "details": "See {IERC721-getApproved}."
      },
      "isApprovedForAll(address,address)": {
        "details": "See {IERC721-isApprovedForAll}."
      },
      "name()": {
        "details": "See {IERC721Metadata-name}."
      },
      "ownerOf(uint256)": {
        "details": "See {IERC721-ownerOf}."
      },
      "safeTransferFrom(address,address,uint256)": {
        "details": "See {IERC721-safeTransferFrom}."
      },
      "safeTransferFrom(address,address,uint256,bytes)": {
        "details": "See {IERC721-safeTransferFrom}."
      },
      "setApprovalForAll(address,bool)": {
        "details": "See {IERC721-setApprovalForAll}."
      },
      "supportsInterface(bytes4)": {
        "details": "See {IERC165-supportsInterface}."
      },
      "symbol()": {
        "details": "See {IERC721Metadata-symbol}."
      },
      "tokenURI(uint256)": {
        "details": "See {IERC721Metadata-tokenURI}."
      },
      "transferFrom(address,address,uint256)": {
        "details": "See {IERC721-transferFrom}."
      }
    },
    "version": 1
  },
  "userdoc": {
    "kind": "user",
    "methods": {},
    "version": 1
  }
}